:020000040800F2
:100000000080002045050008950500084D410008C6
:1000100095050008950500089505000800000000FA
:10002000000000000000000000000000950500082E
:1000300095050008000000009505000855410008DE
:100040009505000895050008950500089505000828
:100050009505000895050008950500089505000818
:100060009505000895050008950500089505000808
:1000700095050008950500089505000895050008F8
:100080009505000800000000554700089505000888
:1000900095050008950500089505000895050008D8
:1000A0007D4700086547000895050008950500088C
:1000B00095050008950500089505000895050008B8
:1000C00095050008950500089505000895050008A8
:1000D00095050008950500082D40000895050008C5
:1000E0009941000895050008950500089505000848
:1000F000950500089505000895050008000000001A
:1001000000000000950500080000000095050008AB
:1001100095050008000000009505000895050008F9
:100120009505000895050008950500089505000847
:10013000950500080000000000000000950500087B
:10014000950500089505000800000000000000006B
:10015000000000000000000000000000000000009F
:1001600000000000000000000000000095050008ED
:1001700095050008000000000000000000000000DD
:1001800000000000950500080000000000000000CD
:10019000000000000000000000000000000000005F
:1001A000000000000000000095050008950500080B
:1001B0009505000895050008950500080000000059
:1001C000000000009505000800000000000000008D
:0801D0009505000895050008E3
:1001D80010B5054C237833B9044B13B10448AFF379
:1001E80000800123237010BD0C05002000000000D2
:1001F800A09B000808B5034B1BB103490348AFF3A4
:10020800008008BD0000000010050020A09B000829
:1002180053B94AB9002908BF00281CBF4FF0FF3165
:100228004FF0FF3000F088B9ADF1080C6DE904CE4D
:1002380000F006F8DDF804E0DDE9022304B07047B9
:100248002DE9F047089D8E4604468846002B4AD182
:100258008A42174662D9B2FA82F64EB1C6F1200335
:1002680001FA06F820FA03F3B74043EA0808B44055
:100278004FEA174E1FFA87FCB8FBFEF1230C0EFB62
:10028800118843EA084301FB0CF29A4209D9FB188A
:1002980001F1FF3080F0EA809A4240F2E7800239AB
:1002A8003B449A1AA3B2B2FBFEF00EFB102243EABB
:1002B800024300FB0CFC9C4509D9FB1800F1FF32F6
:1002C80080F0D6809C4540F2D3803B44023840EA17
:1002D8000140A3EB0C0300211DB1F3400022C5E946
:1002E8000032BDE8F0878B4205D90DB1C5E90001A0
:1002F80000210846F5E7B3FA83F1002946D1734592
:1003080002D3824200F20581841A6EEB03020120B7
:100318009046002DE5D0C5E90048E2E7002A00F044
:100328009080B2FA82F6002E40F0A4808A1A030C5C
:100338004FEA174E80B2BCB20121B2FBFEFC0EFBA5
:100348001C2243EA024304FB0CF29A4207D9FB1829
:100358000CF1FF3802D29A4200F2E080C4469B1AA0
:10036800B3FBFEF20EFB123340EA034302FB04F434
:100378009C4207D9FB1802F1FF3002D29C4200F2DE
:10038800CA8002461B1B42EA0C40A5E7C1F12006C1
:100398008B4022FA06F71F430EFA01F420FA06F3FF
:1003A8002EFA06FE4FEA1749234300FA01F81FFA0E
:1003B80087FCBEFBF9F01C0C09FB10EE44EA0E4466
:1003C80000FB0CFEA64502FA01F209D93C1900F11E
:1003D800FF3A80F09C80A64540F2998002383C4460
:1003E800A4EB0E041FFA83FEB4FBF9F309FB1344D4
:1003F8004EEA044403FB0CFCA44508D93C1903F15C
:10040800FF3E80F08280A4457FD9023B3C4443EA0A
:100418000040A4EB0C04A0FB02EC64457346E146E3
:1004280062D35FD05DB1B8EB030264EB090404FA50
:1004380006F622FA01F31E43CC40C5E90064002108
:100448004FE7B1FBF2FC010C41EA0E4180B240EAF1
:1004580001423B4638463C46B846BE462026B1FBDC
:10046800F7F1A2EB080241EA0C4166E7014618E7FA
:1004780010462CE7C6F120022EFA02F3B740B1402D
:1004880020FA02F24FEA174E0A43B3FBFEF8BCB259
:100498000EFB1833110C41EA034108FB04F9B04084
:1004A80089454FEA104380B23ED9791808F1FF3CDC
:1004B80001D289451FD8A1EB0901B1FBFEF909FB5F
:1004C80004F80EFB191192B242EA0142424529D2C0
:1004D800BA1809F1FF31C4D24245C2D2A9F10201CA
:1004E8003A44BEE7F0459DD2BEEB02036CEB070C25
:1004F8000138E14696E7A7EB09094944A8F1020C3F
:10050800B1FBFEF909FB04F8DBE773467FE75046C9
:1005180066E70846FDE63B44023A33E7ACF1020CD5
:100528003B441CE749469CE7A1EB0901C446B1FBE3
:10053800FEF909FB04F8C4E7704700BF0D4885467B
:1005480004F0BEF90C480D490D4A002302E0D458C6
:10055800C4500433C4188C42F9D30A4A0A4C002305
:1005680001E013600432A242FBD309F0E3FA00F081
:10057800A7FBFEE700800020000000200C050020FB
:10058800E09F00080C050020381C0020FEE7000052
:1005980070B50446C36C406998470023656DA4F89C
:1005A800643084F86030606904F11C012B46042231
:1005B800BDE87040184700BF10B40B780A7991F86D
:1005C80002C01E4CDB0143EA02134A7843EA0223C5
:1005D800CA7843EA8C3343EA4253DAB242F005025E
:1005E80023F07041A25C82EA1122D2B2A25C82EAB4
:1005F8001142D2B2A25C124C82EA1162A25C43EAB6
:10060800027343F00503036272B6836C4BB162B6A2
:1006180090F8243013B9022380F824305DF8044B95
:10062800704700F12001032380F82430816462B60A
:100638000422836D5DF8044B40691847C89B000885
:10064800B89B000830B44B0190F860C090F8634044
:100658001D4D43EA011343EA02330CF0010143EA5A
:10066800811343EAC11304F00F0443EA0423DAB206
:10067800164C42F0060243F00601A25C82EA1322FD
:10068800D2B2A25C82EA1342D2B2A25C82EA1363BB
:10069800EB5C41EA0373036272B6836C43B162B6E2
:1006A80090F8243013B9022380F8243030BC704706
:1006B80000F12001032380F82430816462B604220B
:1006C800836D406930BC1847B89B0008C89B000878
:1006D8000A2A09D090F83630012B1DD990F83E30FF
:1006E800012B0DD90020704790F82E30012BF9D836
:1006F800836A012204330B6080F82E2001207047A2
:10070800836B4FF0010C00F13802043380F83EC0CF
:1007180002640B6001207047036B4FF0010C00F17D
:100728003002043380F836C002640B60F2E700BF81
:10073800844690F86400022801D00220704743EAFA
:10074800021041F8040C9CF86C00012804D14FF603
:10075800CA608852023292B20A2B05D19CF8100066
:1007680048B300208CF8100051F8040C70B5344DD3
:10077800C4B204322E5DC0F307247440A1F1040E04
:100788002E5DC0F30744744092B22C5DC0F303653C
:100798006C402C4D2C5D40EA047041F8040C72B694
:1007A800DCF84810B9B162B6092B06D00A2B2AD05A
:1007B8007BB3002070BD01207047DCF84030196819
:1007C8008E4514BF03200020DCF84410A1B3022199
:1007D80099719A8070BD092B29D00A2B4FF0030319
:1007E8000BBF8CF82E308CF824300CF128030CF158
:1007F8002003CCF8483062B6DCF85830DCF8140036
:1008080071469847D5E79CF82E30012B09D0032074
:1008180070BD9CF82430002BF9D102238CF82430C9
:10082800C7E702238CF82E30ACF82C20C1E7DCF89F
:10083800403003219971DCE7CCF84430C7E700BFAA
:10084800C89B0008B89B000810B590F82430032B0B
:10085800044613D0826C0021917190F82E20022A50
:1008680013D0022B1DD100F12001836D8164042275
:1008780040699847032384F8243010BD90F82E303F
:100888000022022B80F824200BD104F12800A36D4C
:10089800A064A28DA16A60699847032384F82E306A
:1008A80010BD72B6636CCBB10322A3649A71196848
:1008B8009A886069A36D984794F83630022B07D060
:1008C80094F83E30022B03D00023636462B610BD57
:1008D800626C630068339B1A6364F7E7A364F5E707
:1008E8002DE9F04790F86150C269002304460B8057
:1008F8009DB190F8645080F86130012D4ED0022DE2
:1009080012D0D5B9836E052B62D0062B15D1C2F350
:100918000F322946FFF796FE0FE090F86230B3B920
:1009280000252846BDE8F087856E052D00F0D980A2
:10093800062D00F02581092D3ED000256069636DE4
:10094800042204F11C0198472846BDE8F08703EB10
:1009580003231B02C3F307228C488D4D82F0090242
:1009680043F00F01825C82EA1343DBB2C35CEB5CA9
:1009780041EA0373236272B6A36C002B00F0F48083
:1009880062B694F8243013B9022384F82430002284
:10099800236D606984F862209847C1E7816E052954
:1009A80064D00629C9D1C2F30F322946FFF74AFE9F
:1009B800022384F86430C0E790F86030B0F85C2017
:1009C800A5690133012084F8603020740A80B5E7F6
:1009D80094F81DC094F86D30007F94F86C6094F81A
:1009E8006E7094F86F900CF03F0CC009634528BFF7
:1009F8006346B0420146C2F3863828BF314661F3E8
:100A08000705C2F3465AB845414663F30F2528BF88
:100A18003946CA45D64661F3174528BFCE466EF318
:100A28001F65B042E5661BD89C4519D8B84517D84C
:100A3800CA4515D894F87000C2F3021290420FD13B
:100A48004A1C0133D2B2DBB252014FEA8E1E5B015F
:100A58000121A281A4F80EE0A4F85E3084F86410A5
:100A680004F16C012046FFF7A7FD66E7457F90F883
:100A78006CC0017F90F86D0094F86E6094F86FE098
:100A880005F03F05C909A84228BF284661450F4619
:100A980028BF674667F30703C2F38637C2F3465891
:100AA800B742B94660F30F2328BFB146F04569F352
:100AB8001743C14628BFF14669F31F636145E366E2
:100AC8000BD8854209D8B74207D8F04505D894F81D
:100AD8007030C2F302129342C2D0002384F864300B
:100AE800BEE794F81DC094F86D50007F94F86CE050
:100AF80094F86E6094F86F800CF03F0CC00965455F
:100B080028BF654670450746194628BF774667F3EC
:100B18000701C2F38637C2F34659B742BA4665F3AE
:100B28000F2128BFB246C1456AF31741CA4628BFFC
:100B3800C2466AF31F617045E16604F16C010DD885
:100B4800AC450BD8B74209D8C14507D894F87030DE
:100B5800C2F302129B1AB3FA83F35B0984F8643078
:100B68002046FFF729FDE8E604F12001032384F875
:100B78002430A16462B60422A36D6069984706E731
:100B8800C2F30F320121FFF75DFDD6E6C89B0008CE
:100B9800B89B000810B590F86530044643B1012BA6
:100BA80000D010BD002280F8652080F8613010BDAB
:100BB800C1691F4ACBB2D35C83EA1123DBB2D35C91
:100BC80083EA1143DBB2D35C83EA1163D35C5BB97C
:100BD800037F03F00F03062B836609D8042B1FD964
:100BE800012384F8613010BD042380F8623010BD01
:100BF800092B15D1838B1B09A0F85C30002BEFD093
:100C0800B0F85E209A420FD390F86C208169406951
:100C180003EB4202636D9847012384F8653010BDE9
:100C2800012384F8623010BD022380F8623010BDC1
:100C3800C89B00080146002280F86520436D406982
:100C480004221C31184700BF10B594B03822002187
:100C580006A808F067FF0020CDE90100CDE90300F0
:100C6800059005F05FFA9FED147B02235522CDE92C
:100C78000F320324082206A88DED067BCDE90D343A
:100C8800CDE91123139305F0C7FA08B172B6FEE750
:100C9800042103460F220DEB0100CDE90124CDE923
:100CA8000333059305F036FD08B172B6FEE705F08B
:100CB8005FFE14B010BD00BF01000000000001007D
:100CC8002DE980480024A7B003F02AFEFFF7BCFFF7
:100CD800CDE91944AA4D1B94EB6CAA48DFF8E092C1
:100CE80043F00403EB64EB6C03F004030593059BEA
:100CF800EB6C43F02003EB64EB6C03F020030693EA
:100D0800069BEB6C43F00103EB64EB6C03F001030F
:100D18000793079BEB6C43F00203EB64EB6C03F067
:100D2800020308934FF48062089B17924FF4041350
:100D380017A9189304F0C0FFAB6C43F00403AB642D
:100D4800AB6C03F004030393039BAB6C43F0010308
:100D5800AB64AB6C0C9403F00103214604933C2272
:100D680017A8CDE90D44049B08F0DCFE202221469B
:100D78000FA808F0D7FE4FF40047C9E90144C9E9B4
:100D88000B44C9F81040A9F81C4089F8244089F898
:100D98003840C9F83C4089F840404FF0A04201254E
:100DA800042402264846C9E90554C9F80020C9F8B0
:100DB8000C70C9F8206003F0DDFD08B172B6FEE7DB
:100DC8000C900CA9484604F037FC08B172B6FEE74F
:100DD8006D4BADF880004FF0090BCDE91B40CDE914
:100DE800173B8DF882008DF88C004FF07F084FF08C
:100DF800840A802317A94846CDE921A319951F968F
:100E0800CDF8688004F01AF908B172B6FEE75F4AB7
:100E180040F20F1317A94846CDE9172304F00EF93D
:100E280008B172B6FEE7DFF89CE1149006220FA91C
:100E38004846CDE91148CDE90FE2139403F08EFE40
:100E480008B172B6FEE7DFF880C10C230FA9484647
:100E5800CDE90FC303F082FE014608B172B6FEE782
:100E6800DFF8689101903C2217A808F05BFE019911
:100E7800474AC9F80C704846C9E90111C9E904157F
:100E8800C9F81840A9F81C10C9F8205089F824108E
:100E980089F83810C9F83C1089F84010C9F80020C2
:100EA80003F068FD08B172B6FEE73A4A1C90802349
:100EB800ADF880008DF882008DF88C0017A948469F
:100EC800CDE918B5CDE91A841F96CDF884A02293F0
:100ED800179204F0B3F808B172B6FEE72A4B1793DD
:100EE800484640F20F1317A9189304F0A7F80346D1
:100EF80008B172B6FEE72848C0E90333C0E90533F4
:100F08004360264B03604023836004F0F9FB08B17B
:100F180072B6FEE72248234E00234024C0E900634E
:100F2800C0E90333C0E90533846004F0E9FB0346F4
:100F380008B172B6FEE71C48C0E90134C0E90333C2
:100F4800C0E90533194B036004F0DAFB08B172B647
:100F5800FEE71748174B036004F072FC014608B11E
:100F680072B6FEE7144D302217A808F0DBFD134BCC
:100F78002B60284604F00CFD024648B372B6FEE723
:100F880000100240000800480800900C0010603271
:100F98000001005000008CCB000800200002014036
:100FA800DC07002004020140B80700200C020140C1
:100FB80090070020000C02407C0700200010005021
:100FC80090080020020030042000F01424080020BB
:100FD8000223CDE91900ADF860001B901E9017A9F7
:100FE8002846CDE91C33179304F0E8FC08B172B623
:100FF800FEE72846102217A904F0E0FC034608B1D2
:1010080072B6FEE79C484FF40036C0E9013403612C
:1010180003758361C3624FF44045984B0360C0E990
:10102800096505F007F8034608B172B6FEE794486B
:10103800C0E90134036103758361C362914B0360A6
:10104800C0E9096504F0F6FF034608B172B6FEE789
:101058008D48C0E90965436003618361C362012566
:101068008A4B84600360057504F0E4FF044608B108
:1010780072B6FEE7CDE90C00CDE90E00CDE910000F
:10108800CDE91200CDE91400CDE90A000990014626
:10109800342217A808F046FD7D487E4B4561036061
:1010A800202540F61133C0E902534FF480734460A1
:1010B8008461036105F070FE08B172B6FEE7702521
:1010C80000237348099509A9CDE90A3306F00AF8FF
:1010D80008B172B6FEE701240E9002236C480CAAF0
:1010E8002146CDE90C3406F09DF808B172B6FEE74A
:1010F800042667480C960CAA214606F093F808B116
:1011080072B6FEE70CAA102361480C93214606F03C
:1011180089F8024608B172B6FEE760214FF4B16360
:10112800CDE91100CDE91300CDE90F1315900FA9F2
:10113800574805F0F1FE08B172B6FEE7544832464A
:101148000FA905F0E9FE08B172B6FEE7504808227B
:101158000FA905F0E1FE08B172B6FEE74FF431635E
:101168004B480C220FA9CDE90F5305F0D5FE0346D5
:1011780008B172B6FEE74FF400644FF48060CDE921
:1011880017404FF480503F241B904FF0007003220B
:10119800CDE9193420904FF400543D48239317A902
:1011A800CDE91C42CDE91E33CDE9212305F0ECFF42
:1011B800044608B172B6FEE7354803F0E3F936484D
:1011C800364984624FF461220C23C0E90012C0E959
:1011D8000244C0E90443C0E90644C0E9084406F0F3
:1011E80039FB08B172B6FEE700212B4806F084FBF4
:1011F800014608B172B6FEE7274806F0BFFB08B102
:1012080072B6FEE7244806F059FB044608B172B6E8
:10121800FEE701F081F901220321262004F03CFBBE
:10122800262004F075FB224603210B2004F034FB32
:101238000B2004F06DFB01220421182004F02CFB84
:10124800182004F065FB22462146192004F024FBEF
:10125800192004F05DFB22460221122004F01CFB39
:10126800122004F055FB28202246032104F014FB29
:10127800282004F04DFBFEE7400700200003014052
:101288000407002004030140C806002008030140A9
:101298007C060020002C0140E805002000440040A6
:1012A80072B6FEE7014B186800F0B4B8D01B0020F6
:1012B800014B186800F0C6B8D01B0020014B186815
:1012C80000F0A0B8D01B002002207047704700BF74
:1012D800704700BF012303744182028480F82830DC
:1012E800704700BF4FF0020C40F2014380F810C075
:1012F8008182028403857047436810B5002283F811
:10130800242004460321006807F0AEFF032384F875
:10131800293010BD436810B5012283F82420044603
:101328000221006807F0A0FF022384F8293010BDCD
:1013380038B543680125044683F8245000682946D7
:1013480007F092FF84F8295038BD00BF838CB0F8AD
:1013580026C00B4323EA020341EA0C018384C184BB
:10136800704700BF90F82830012B00D0704710B5A7
:10137800037C013B0446042B2AD8DFE803F02D192F
:10138800110303004368012283F82420028CB0F97A
:101398001210C06808F078FB022384F8283010BDCA
:1013A8004368012283F82420D0F816201A61F3E755
:1013B8004368002283F824200068042107F054FFC2
:1013C800228CB4F91410206807F052FF0028E3D1EA
:1013D800032384F8283010BD4368002283F82420B2
:1013E8000068032107F040FF228CB4F91210E0686E
:1013F80008F04AFB228CB4F91210206807F038FF75
:10140800E4E700BF90F82300704700BFC08C704726
:10141800808C704710B50446FFF7F4FF08B1002030
:1014280010BD2046FFF7F2FF0028F8D12046FFF74D
:10143800EFFF0028F3D1012084F8220084F8280067
:1014480010BD00BF38B50546FFF7DCFF044618B1EC
:10145800B0F10C0418BF01242846FFF7D7FF10B1DC
:101468000024204638BD2846FFF7D2FF0028F7D1D0
:10147800002CF5D0052385F82230F2E710B5044694
:10148800FFF7C0FF0B2801D0002010BD2046FFF752
:10149800BFFF0028F8D1022384F82230E08401201D
:1014A80010BD00BFC38C808C43EA0040704700BF6A
:1014B80090F82900704700BF30B583B004460D4648
:1014C800FFF7F6FF02280BD0032201230420227421
:1014D800C4F8165084F8283084F8290003B030BDC9
:1014E8006368C4F816501D6184F8290003B030BD44
:1014F800037C022B13D0032B09D0012B17D1B0F991
:101508001230002BB4BF4FF0FF3001207047B0F904
:101518001630002BB4BF4FF0FF3001207047B0F9F0
:101528001430002BB4BF4FF0FF300120704701206A
:10153800704700BFB0F91200704700BFB0F914003F
:10154800704700BF008C704703680022DA609A6118
:10155800704700BF0368586907F01EBE006807F0AF
:101568007FBE00BF4368186883B26FF30F0082B074
:10157800184302B0704700BF4368586883B26FF3DE
:101588000F0082B0184302B0704700BF4368D868A4
:1015980083B26FF30F0082B0184302B0704700BFE8
:1015A8004368186983B26FF30F0082B0184302B022
:1015B800704700BF4368D3F8160083B26FF30F007B
:1015C80082B0184302B070474368D3F81A0083B258
:1015D8006FF30F0082B0184302B070474368B3F945
:1015E8001E00704710B5D0E9000407F0C3FEC0F331
:1015F8000F432082638210BDC0F30F4344F6E61107
:101608004BF21A6213FB01F310FB02F2A2EB430246
:10161800B2F1804F84B003B205DAD11311F5004F4F
:101628000CDA094A01E047F6FF729BB2002063F327
:101638000F0093B263F31F4004B0704702480AB228
:101648008242B8BF0246F0E70180FFFF064B00F177
:10165800FF404FF0601200F5FE0082B01A6058603B
:10166800986802B0704700BF000C024030B50546CC
:10167800044685B00846FFF7E9FF2DB201B22414ED
:10168800001405FB01F304FB1033B3F1804F05DAB6
:10169800DA1312F5004F22DA144A01E047F6FF7216
:1016A80001FB04F405FB0044B4F1804F4FEAE43336
:1016B80004DA13F5004F0CDA0C4B01E047F6FF7320
:1016C80092B2002062F30F009BB263F31F4005B093
:1016D80030BD06491BB28B42B8BF0B46F0E7034B3F
:1016E80012B29A42B8BF1A46DAE700BF0180FFFF7C
:1016F80030B5054685B004460846FFF7A7FF241411
:1017080002142DB200B204FB02F305FB003300FB08
:1017180004F405FB1244C3F3CF33002063F30F0036
:10172800C4F3CF3464F31F4005B030BD002809DD91
:1017380072B6054B40F269121A6058609868C00B7F
:1017480062B6704700207047000C024008B310B51D
:10175800104A114C02600023237000F025FA0F484C
:10176800FEF716FF0E4806F051FB0E4808F0E4F8A5
:101778000D4802F0C9F90D4807F058FB0C4802F073
:10178800C3F90C4806F0ECFAFFF7A0FD012323701B
:1017980010BD7047000000203809002074040020A4
:1017A8004C030020E0030020A4030020880300204D
:1017B800D0030020B4030020014B1880704700BFFD
:1017C8003C090020034B188880B2B0FA80F0400929
:1017D800704700BF3C090020014B1880704700BFCC
:1017E8003A090020034B188880B2B0FA80F040090B
:1017F800704700BF3A09002008B5002000F048FCF7
:10180800064A0748136890F829100133136009B98C
:10181800002008BD06F028F9002008BD341C00206F
:1018280038040020F8B50446A8B1224E306801F00B
:1018380091F80146204D04EB840304EB430305EBC8
:101848008305CA43284692B2FFF780FD2846FFF772
:1018580029FED8B9F8BD1948164E02F077FA0146A4
:10186800174806F08FFA0746306801F073F8054606
:10187800144802F06BFA0146134807F003FB0743CC
:1018880007F00E0745EA070189B2D3E756F82400A6
:1018980001F014F80D4890F8293023B92046BDE826
:1018A800F84000F033B906F09DF92046BDE8F8404D
:1018B80000F02CB92809002000000020D0030020E7
:1018C800B4030020A403002088030020380400206B
:1018D80008B5064B1B78012B00D008BD0020FFF788
:1018E800A1FFBDE8084002F0F9BA00BF380900209E
:1018F8001E4B1B78CBB170B51D4C2388B3B1013B8F
:101908009BB21C4A238013889BB21BB11388013BEE
:101918009BB21380184A13889BB21BB11388013BF2
:101928009BB21380FFF7D4FF70BD7047134D00F0D2
:10193800F3F9FFF7CDFC294651F80C0B836898475B
:10194800686030B129460A2251F8080B03689847A5
:1019580008B90123D5E7284600F016FD2868EA896A
:101968004668A9680A23B047F3E700BF3809002092
:101978003E0900203C0900203A09002064040020A8
:1019880008B5002000F0C2F8BDE80840024800226F
:101998008021FFF7DBBC00BF0000002008B5FFF77F
:1019A8008DFC18B9BDE80840FFF77CBCBDE80840CD
:1019B800FFF77EBCF0B44D4A4D494E48042592B01D
:1019C800D161D561D161D36911930226119BD06190
:1019D800D661D061D3691093109B4FF480444FF4C3
:1019E800A033D361D461D361D4690F944FF090438D
:1019F8000F9C01274FF00114DC61DF61DC61D3F833
:101A08001CC0CDF838C0DDF838C0D461D761D461C6
:101A1800D4690D940D9C384CDC618027DF61DC6152
:101A2800DC690C940C9CD861DE61D861D8690B9094
:101A38000B9C3248D8610824DC61D861D8690A90C7
:101A48000A98D961DD61D961D969099140202C4989
:101A5800099CD961D861D961D9690891202029499F
:101A6800089CD961D861D961D8690790E0314FF4F1
:101A78008070079CD961D861D961D96906914FF402
:101A880000704FF48131069CD961D861D961D96958
:101A980005914FF480604FF48231059CD961D8617B
:101AA800D961D96904914FF480504FF48831049C6E
:101AB800D961D861D961DB6903934FF400414FF4D0
:101AC800C0330398D361D161D361D2690E4B0292BE
:101AD8004FF400514FF490320298DA61D961DA611B
:101AE800DB690193019B12B0F0BC70470004004809
:101AF800040001000200010080000100080001004C
:101B080040000100200001000008004838B50446E4
:101B180004EB84031E4804EB430300EB8300FFF748
:101B2800C7FC2622013804FB02F21A4BC0B2012876
:101B38004FF00001995003EB020C88BF1032CCF82B
:101B48000410CCF80C1088BF9950262101FB0433EF
:101B5800114A002552F82400C3F81650C3F81A5049
:101B6800C3F81E50294606F065F90C4B294653F870
:101B7800240006F05FF90A4B53F8240007F068FBCD
:101B8800084B53F82400BDE8384000F097BE00BF6A
:101B98000000002000090020340000203000002050
:101BA8003800002028090020F0B52D4D2D4E2E4874
:101BB8002E4F2F4C85B0286006F01AFD00F0CAFCA5
:101BC800304606F023F9384607F0CCFD20683A463F
:101BD800314607F025FB274F2A6800922168264BDB
:101BE8002648274E274D3A4607F00CFA264806F0B5
:101BF8000DF9264806F00AF9254B264A1B6839468E
:101C0800DA609D60304606F0E7F8234A23481660FC
:101C1800234A244E106007F063F90020FFF776FF8F
:101C28000123206885F8243007F0A4FBC0F30F4295
:101C3800034620686A822B8207F09CFBC0F30F439F
:101C48003046AB82FFF758FB206807F08FFB002275
:101C58000146304605B0BDE8F040FFF73BBB00BF8A
:101C6800280900204C030020A40100207C0000204B
:101C780038000020E003002068000020480200200F
:101C8800580000200009002020030020F402002052
:101C98002C0000208803002040090020400000207C
:101CA800FC08002000000020704700BF2DE9F0412B
:101CB800044672B6154E262505FB0065B5F9108059
:101CC800B5F9127062B6124804EB840304EB4303BF
:101CD80000EB8300FFF7ECFB95F824301BB90138C3
:101CE800C3B2012B09D872B6262303FB0466A6F8F3
:101CF8001080778262B6BDE8F081064B53F8240065
:101D080007F0FEFA8046E883EDE700BF00090020EF
:101D18000000002038000020F0B5BE4C83B000233E
:101D28002046ADF80030FFF7C3FB69460546BA48C0
:101D380007F020FCB94B0646186806F0EFF8204675
:101D4800FFF766FB20B10A2384F8233003B0F0BD07
:101D58002046FFF75BFB78BB94F82330132BF5D8AC
:101D680001A252F823F000BF691F0008551D0008A2
:101D7800551D0008551D0008D51E0008551D0008F2
:101D8800A51E0008551D0008851E0008551D0008E1
:101D9800C11D0008751E0008551D0008551D0008C6
:101DA800551D0008551D0008251E0008ED1D0008DA
:101DB800551D0008CB1D00080B2384F8233003B001
:101DC800F0BD94F82230052B00F0E880944807F025
:101DD800A1F90246002840F0F0808E481021FFF754
:101DE800B5FAB3E794F822308E4D052B286800F039
:101DF800D780012100F066FD0028A7D094F8223092
:101E0800032B00F036812868002106F055FB1420CA
:101E1800FFF7D2FC102384F8233097E794F8223098
:101E2800052B00F0BB80FFF7CDFC00288ED07D4E3F
:101E3800306806F081FA7C4B7C49012283F8242023
:101E48007B4B186807F002FA734807F065FC00201E
:101E5800FFF75CFE6B1EDBB2012B8CBF042306234D
:101E6800306884F8233000F02BFD6FE794F82230B7
:101E7800022B7FF46BAF0023638467E7FFF7B2FCA4
:101E880000283FF463AF6A4B6849186807F0DEF929
:101E9800664807F043FD0023638457E794F822302F
:101EA800052B7BD05B48FFF75DFA6B1EDBB2012B7D
:101EB80040F2D6800020FFF7F9FE002E7FF446AFEF
:101EC800544832462021FFF741FA3FE794F8223080
:101ED800052B63D0524807F01DF90246002840F050
:101EE800AD804C481021FFF731FA50480DF102013E
:101EF80007F078FD4A4807F045F900283FF426AF77
:101F0800454E0DF10201304607F066FC0546414892
:101F1800FFF7EEFA41B2304607F0FCFC4348294689
:101F280007F0EEFD002D3FF411AF3F4FB6F9041056
:101F38007868404DFFF79AFB0190286806F0D0FFBB
:101F4800B7F910102868002207F016F8BDF9041038
:101F58002868192207F010F8132384F82330F5E6CF
:101F680094F8223003F0FD03012B7FF4EFAE6B1ED3
:101F7800DBB2012B06D92748FFF7BAFA01462848F1
:101F880007F07CF8274D286890F87F1000295FD16A
:101F980000F098FC112384F82330D7E6214B186809
:101FA80006F0CAF90020FFF7B1FD4FF44870FFF7BB
:101FB80013FC082384F82330C8E61C4801A907F05D
:101FC80011FD0546194807F0A9FD15B900283FF489
:101FD800BDAE154B1848B3F9105005F035FF01B2E6
:101FE80005FB01F1124D144805F024FF0A49286841
:101FF80007F02CF90020FFF757FE0020FFF756FEE8
:10200800286807F0BDF90348FFF7ACF9062384F800
:1020180023309BE6000000207C0000202C000020DC
:10202800480200202809002000090020E0030020C1
:1020380038000020FC0800204C030020104B1868D2
:1020480007F05EF90F4BB3F9142018825A824CE757
:102058000121A0F8601000F035FC28680021D4E6C2
:1020680001A9094807F0BEFC084B186805F0BCFE3A
:102078006CE60020FFF74AFD0023638466E600BF94
:102088003800002000090020E0030020400900205B
:102098002DE9F047DFF85081524C98F8233088B08A
:1020A8000546132BD4F81A00059000F08E804E4890
:1020B8004E4FFFF7FDF94E4B1B6881465B69386848
:1020C800B3F90460036802A9984701F07FFF01F0A3
:1020D80039FF0298FFF790FA31460390FFF7C6FAE6
:1020E800B4F91030009001B2591A424B186805F043
:1020F800D5FEBDF90230B4F91210C91A3E4B82461A
:10210800186805F0CBFE1FFA8AF1B9F1010F41EA10
:10211800004154D0394805F079FC31468146FFF733
:10212800E7FA01463868049100F080FA01460298FF
:102138002060039860600098E06001290498C4F862
:1021480016902684C4F81A0031D02D482D4E07F079
:1021580019F82D4A03466068D288069005A93046CA
:102168001C46ADF81C2007F013F9304607F0A8FA12
:102178009CB198F82330132B0BD8244A22FA03F386
:10218800DB0706D5B3882248ADF8103004A907F05C
:10219800D7FB284608B0BDE8F087214606F1340091
:1021A80005F048FE98F82330132BE6D9F1E70E48DE
:1021B8000022FFF7CBF8284608B0BDE8F087154B9A
:1021C800186805F00DFE0146A4E7134E306806F0C6
:1021D800B1FE00287FF46BAF306806F089FE2082DC
:1021E80065E700BF00090020000000202809002042
:1021F8003800002034000020300000203C0000207F
:10220800480200207C0000208803002050000800BD
:10221800E003002040090020FC0800202DE9F04FD1
:1022280089B08568334B06934FF00008324B4468F9
:10223800B0F90C20ADF816800646A0F80E806F188D
:10224800CDF80C800793C5F10109A2F1020A002A12
:102258000FFA8AFE0DF116031FFA8AFA36DD34F8F2
:1022680002CB0DF120082CF007000CF0070B1CF036
:10227800060F224680B20CF0380108EB8B0B2DD1EB
:102288005BF808BCCDF800E0D847BDF8161005EBA0
:102298000903DBB2AAEB0102012B12B20C4412D0E3
:1022A800BD4221D005F8010BF3890133F3810028E1
:1022B800CBD0072812D001230A280393C5D103984D
:1022C80009B0BDE8F08F002AEAD10390039B002BE8
:1022D800F5D10398F38109B0BDE8F08F012303938A
:1022E800039809B0BDE8F08F08230393039809B059
:1022F800BDE8F08F95290008952A00082DE9F047D8
:1023080086B00023ADF80E30C381B0F80C801C4BAA
:1023180004931C4BD0F8049086680593B8F1000F1D
:1023280029D007460CB24D4612E05EF808AC00947E
:10233800D047A8EB050319FA83F39BB2E0B9BDF8BF
:102348000E10FA89641A0A440E44FA8124B29BB129
:1023580035F802CB0DF1180A2CF007000CF0070E27
:102368001CF0060F0DF10E03324680B20CF0380156
:102378000AEB8E0ED9D0012006B0BDE8F08700BF69
:102388009D300008D1310008F0B50446466822683F
:1023980036F8023B8089928903F47F45013A023876
:1023A80023F0070CB5F5807F91B283B080B21FFA95
:1023B8008CFC12B23CD0013B03F00703544DA081C2
:1023C80003EB830703EB470305EB8307BCF1380FE7
:1023D8004FF000056660E58135D8BCF1380F1ED88E
:1023E800DFE80CF06C1D1D1D1D1D1D1D741D1D1D20
:1023F8001D1D1D1D591D1D1D1D1D1D1D4B1D1D1D9B
:102408001D1D1D1D531D1D1D1D1D1D1D5E1D1D1D7D
:102418001D1D1D1D471D1D1D1D1D1D1D66000023A5
:102428000220A268D054E3890133E38103B0F0BDF0
:10243800CCF3C40C0023BCF1010FA0816660E381DA
:1024480051D90D20EDE7BCF1680F09D043D8BCF194
:10245800480FE4D13846FFF7C5F8E3892846E0E796
:10246800A3680093314604F10E03FEF72DFFE389BC
:10247800D7E73846FEF7C6FF38B93846FEF7CAFF31
:1024880080F00100E389C0B2CBE73846FEF7DAFFF7
:10249800E3890020C5E72046FFF730FFE389C0E75E
:1024A8003846FEF7AFFF062829D0E3890020B8E7B1
:1024B8003846FEF7E3FFE3890020B2E7A36804216A
:1024C8000122E1811A70E3890020AAE72046FFF77C
:1024D800A5FEE389A5E7BCF1780FA0D103F026FAA1
:1024E800E38928469DE70B4B53F82C506DB1A36840
:1024F8000093314604F10E03A847E38991E7384673
:10250800FFF722F8E38900208BE72B4699E700BF05
:10251800000000204409002008B504F0FFF90A4B28
:10252800A3FB0030C00903F013FA084B0022196816
:102538004FF0FF3003F0B0F90548FFF707F9BDE8A1
:102548000840FFF737BA00BFD34D621008050020D6
:10255800D01B00202249234A8B6810B423F440136F
:1025680023F0700343F0100383B08B608B6823F46F
:10257800803323F0070343F006038B60936DDB077A
:1025880016D4936D43F001039365936D4FF080412A
:1025980003F001030193019B4B6943F001034B6175
:1025A800936D23F00103936503B05DF8044B704706
:1025B8004FF080430C485A6859680C4C014041F070
:1025C80020015960596941F0010159615968224057
:1025D80001400A435A6003B05DF8044B704700BFDE
:1025E800002C0140001002408FFFFFFD7000000228
:1025F800013270B552086FF00206550106610022DB
:1026080093F800C0BCF10F0F02F1010E0CD8046959
:10261800A407F5D51FFA8EF295420661F0D81C780A
:102628000F2CEDD801230B8070BD00BF30B5B0F87A
:102638007040B0F84E204FEA214C0BB204FB0CFC62
:10264800CCEBCC7C02FB03F303EB4C02C3EB4C0357
:1026580002EBD27E03EBD371551C83B04FEA94048E
:102668004FEA4C0C4FEA6E0E4FEA61016BDB5D1CC2
:102678003DDBBEEB010E44BF0EF57F3E0EF2FF3E82
:10268800002BBCBF03F57F3303F2FF33002AB8BF2A
:1026980002F57F3290F8851004EBAE4E4FF001053D
:1026A800B8BF02F2FF3280F87A500EEBA343AEEBCC
:1026B800A24200296ED11FFA83FC1FFA8EF491B250
:1026C800A0F85C104169A0F858C02EEAEE7E23EA13
:1026D800E37322EAE272A0F85A40A0F850E0A0F8AA
:1026E8005230A0F8542003B0BDE830400847BCF190
:1026F800000F7BDD002BB8BF03F57F33ACEB010186
:10270800B8BF03F2FF33BCF1000F04EBA14EB8BF12
:102718000CF5FF3C90F87D104FF000020EEBA34340
:10272800B8BF0CF2FF1C80F87A20A3EB6C4200299A
:1027380040F0AE8090F88540002C00F0B9804FF052
:10274800020C0124BCE7B3F1FF3F90F8855070DB21
:10275800BCF1000F23DDBEEB0C0E44BF0EF57F3E2F
:102768000EF2FF3E002AB8BF02F57F3204EBAE4EF0
:10277800B8BF02F2FF320223AEEBA24280F87A30F1
:1027880002EB6C43002D7ED11FFA83FC94B21FFA32
:102798008EF195E74FF0020C0024012190E7BCEB85
:1027A800010144BF01F57F3101F2FF31002BB8BFB1
:1027B80003F57F334FF00302B8BF03F2FF3380F80D
:1027C8007A20BCF10002B8BF02F5FF3204EBA14E3B
:1027D8000EEBA343B8BF02F2FF12A3EB6242002D37
:1027E80060D04FF0000C0124022169E7002AB8BF2D
:1027F80002F57F324FF00503B8BF02F2FF32AEEBAD
:102808000C0E80F87A30BCF10003B8BF03F5FF3333
:1028180004EBAE4E90F88510AEEBA242B8BF03F2BF
:10282800FF1302EB6343C1B34FF0010C02240021F4
:1028380046E7BEEB010E44BF0EF57F3E0EF2FF3EAB
:10284800002BBCBF03F57F3303F2FF33002AB8BF68
:1028580002F57F3204EBAE4E4FF0040CB8BF02F223
:10286800FF3280F87AC00EEBA343AEEBA2422DB93B
:102878001FFA82FC1FFA8EF499B221E74FF0010C7F
:10288800002402211CE74FF0000C0224012117E765
:102898004FF0020C0124002112E71FFA8EFC94B2BB
:1028A80099B20DE71FFA82FC9CB21FFA8EF107E776
:1028B8001FFA8EFC9CB291B202E700BF436818472A
:1028C8008368184710B5044679B1012901D0002062
:1028D80010BDB0F860306BB1013B9BB2A0F860301E
:1028E800002BF4D1C368984704E0FFF7E7FFE368DB
:1028F80020469847012010BD90F883301BB990F806
:102908007B30022B04D0012380F880307830704768
:10291800D0E90F2110B4436CB0F848409462B0F885
:102928004A40B0F84C208C629A62012380F88030CB
:102938005DF8044B783070474A6C03464FF0010C41
:1029480042F480624A64783083F881C083F883C097
:10295800704700BF034690F88100A8B1002283F8B1
:1029680081204221022093F880201AB1002283F8A6
:102978008020084693F882202AB140F48060002223
:1029880080B283F8822070474021ECE710B4083900
:10299800BDF904C0202912D8DFE801F01711111180
:1029A8001111111121111111111111112F111111E1
:1029B8001111111139111111111111114D000022AC
:1029C8001A8007205DF8044B704748284FF0010231
:1029D80014BF052004205DF8044B1A807047B0F539
:1029E800656F39D042D9B0F5696F35D041F65832A4
:1029F800904214BF052004202FE018284FF004024D
:102A080014BF052010465DF8044B1A807047012159
:102A1800198092F9000028B31FFA8CF003E019809E
:102A280012F9014FF4B101F1010C81421FFA8CF146
:102A3800F5D30420C6E71288023292B21FFA8CFC42
:102A480062451A801AD8A828F3D01BD820F0400075
:102A58002828EED00520B5E7002002225DF8044BB7
:102A68001A807047002313700420ABE720F0400061
:102A7800B0F5B26F14BF05200420EEE700221A80DB
:102A88000A209FE7E828E5D1D3E700BF30B583B037
:102A98000839BDF918E094461C46202912D8DFE809
:102AA80001F0161111111111111123111111111128
:102AB80011115A111111111111114811111111117E
:102AC8001111670000232380072003B030BD882838
:102AD80000F0968020F0800048280CBF04200520D4
:102AE8000123238003B030BDB0F5196F158800F0BD
:102AF8005A8260D8B0F5347F00F0508200F2A68088
:102B0800B0F5C87F00F0198200F20781D02800F0E4
:102B18001E82B0F5887F00F01582902840F054821C
:102B2800B54829B205F07AF900200223238003B0C2
:102B380030BD012222809CF90030002B36D01FFACC
:102B48008EF303E022801CF9011F79B3511C9342D4
:102B58008AB2F7D82DE098286AD061D820F04000D2
:102B6800182814BF052004200423238003B030BD97
:102B780011888A1C92B21FFA8EF39A4222803BD89F
:102B8800B0F50A7F00F0E18000F2AC80B0F5D47FA8
:102B980000F08E8000F2B580A8280AD000F29B8150
:102BA80020F04000282804D005208EE700238CF868
:102BB8000030042089E741F29053984200F0FF81E9
:102BC8005BD841F29043984200F0938140F2228111
:102BD80041F21053984200F0C48141F25053984298
:102BE80000F0BA8141F2D043984240F0ED8182482A
:102BF800294605F04DF997E7002323800A2064E76A
:102C08001378042B65D0032B00F04881022B00F0C9
:102C18004181012B02D17948FEF78AFB00205FE74A
:102C2800D82854D0B0F58C7F14BF052004209BE72A
:102C3800B2F900307249714881FB0321A1EBE371BD
:102C4800002209B2FEF746FB00208DE7B0F58A6F37
:102C580000F0548100F2FF80B0F5547F00F06081ED
:102C6800B0F5647F00F04F81B0F5447F40F0AC814F
:102C7800644829B205F004F956E741F6D0039842B2
:102C880000F07E8100F2F58041F21063984200F076
:102C98002B8141F25063984200F0218141F2D053D8
:102CA800984240F091815848294605F0C7F83BE71B
:102CB800DCF80210524BBCF8062083FB0103A3EB9F
:102CC800E1714E4809B2FEF705FB0020FDE604203D
:102CD8004AE74A48FEF782FC002201464748FEF7C9
:102CE80001FB9BE7B0F55A7F28D0B0F5A56F7FF4BC
:102CF8005BAF46480CF1020103B0BDE8304004F078
:102D08009FBFB0F5F47F7FF44FAFBCF80620BCF945
:102D180002103A48FEF7E6FAD7E7B0F5047F00F06C
:102D28002A81B0F5247F00F02181B0F5E87F40F0DA
:102D38004B81354829B205F073F8F5E6DCF8021046
:102D48002E480191FEF7B8FBBFE74B077FF456AF5B
:102D5800C9B22F293FF652AFC908B6D0BCF9023024
:102D6800274ABCF8085082FB0340A0EBE370284BCD
:102D7800BCF906401C8201299D81D881A5D0BCF9E7
:102D88000A40BCF90E5082FB04E0A0EBE470022973
:102D9800BCF810401C839D83588396D0BCF9124020
:102DA800BCF9165082FB04E0A0EBE4700329BCF8E0
:102DB80018409C841D85D88487D0BCF91A40BCF97A
:102DC8001E5082FB04E0A0EBE4700529BCF820400B
:102DD8001C869D8658867FF478AFBCF92210BCF912
:102DE800260082FB0142A2EBE172BCF828409C87D6
:102DF800A3F84000DA8768E74C03002000000020B1
:102E0800ABAAAA2AF40200202003002038040020DC
:102E180048020020B0F5696F3FF486AE52D8B0F58D
:102E2800656F3FF481AE00F2CF80B0F5396F00F0E6
:102E3800CD8000F2E880B0F5256F00F0C78000F281
:102E4800FD80B0F51D6F00F0C180B0F5216F14BF93
:102E58000520042069E6B0F5016F00F0B78021D89D
:102E6800B0F5926F40F0B480824829B204F0D6FFE2
:102E78005AE641F6D023984200F0878000F2D780C6
:102E880041F61013984240F0CB807A48294604F066
:102E9800D5FF49E67848FEF73DFABFE67648FEF7E3
:102EA8002BFABBE6B0F5156F40F09F807248FEF72D
:102EB80077FB03460193ADF804506F480199FEF77C
:102EC800FBFA31E641F2504398427DD16B482946DE
:102ED80004F0B4FF28E6E8283FF46BAE64E66848DF
:102EE800294604F0D5FF1FE66548294604F0B4FFDB
:102EF8001AE66248294604F0AFFF15E65D4829B294
:102F080004F08EFF10E601AA0DF102015D4806F0FB
:102F1800DFFC5C48BDF902102AB206F0E1FC03E6CA
:102F280001AA0DF10201574806F0D2FC5548BDF937
:102F3800042029B206F0D4FCF6E5514829B204F081
:102F48006DFFF1E54D4829B204F09AFFECE54B48D6
:102F580029B204F065FFE7E54B48294604F07CFFF9
:102F6800E2E54948294604F069FFDDE5464829B20B
:102F780004F054FFD8E5424829B204F081FFD3E5B4
:102F88003C48294604F068FFCEE5404A4049C5EB75
:102F9800C533A2FB03235B090B81C5E53A4829B277
:102FA80004F03EFFC0E53448FEF7FAFA0346019301
:102FB800ADF8065030480199FEF77EFAB4E532487C
:102FC800294604F065FFAFE50520AEE50420ACE531
:102FD800FAD3B0F5F26FF9D045D820F04000B0F53B
:102FE800B26F14BF052004209FE5EDD8B0F50D6F32
:102FF800ECD02CD8B0F5056FE8D0B0F5096F14BF48
:103008000520042091E5B0F5456FDFD025D8B0F54F
:103018003D6FDBD0B0F5416F14BF0520042084E577
:1030280041F69023984214BF052004207DE541F61F
:103038005833984214BF0520042076E5B0F5296F6F
:10304800C4D0B0F5356F14BF052004206DE5B0F588
:10305800116F14BF0520042067E5B0F5496F14BF50
:103068000520042061E5B0F5FA6F14BF052004209F
:103078005BE500BFB0000020000000204C030020EA
:10308800200300207C000020F40200201F85EB5163
:103098005800002010B5A1F1080CBDF908E0BCF1FA
:1030A800200F12D8DFE80CF01B11111111111111AA
:1030B80027111111111111112211111111111111D1
:1030C80035111111111111111300072010BD2828F5
:1030D80029D012880232052092B21A8010BDBEF1A2
:1030E800000F1EDD01221A80052010BDBEF1030F5E
:1030F80015DD0422F7E7BEF1010F10DDB0F5656FAD
:103108005AD0B0F5696F14BF0520002002221A803A
:1031180010BD20282CD060280FD00022E3E708201B
:1031280010BD084610BD1FFA8EFE0A21BEF10B0F16
:10313800118035D80C220820CFE7204C94F90000E4
:103148000121198080B11FFA8EFEA44608E002F81A
:10315800010B1988013189B219801CF9010F18B1C6
:103168007145F4D3062010BD00231370002010BD54
:10317800134C94F90000012119800028F4D01FFA9B
:103188008EFEA44609E002F8010B1988013189B2C4
:1031980019801CF9010F0028E6D08E45F3D8E1E725
:1031A800084948680C680989C2F80600C2F8024054
:1031B800518100200C2290E70020A7E7549D0008C9
:1031C800309D0008249D000830B595B01D46A1F13A
:1031D8000803BDF960C01446202B12D8DFE803F0BD
:1031E80031111111111111116A111111111111114E
:1031F8004711111111111111611111111111111131
:103208001400072015B030BDB0F5D47F00F0D4818C
:103218007ED8E82804F1020300F0EA8100F2218157
:10322800682800F0DA81A82840F0AE811FFA8CFCEB
:103238001022BCF1110F228000F24B8212230820C9
:1032480082E0BCF1000F40F37481882800F0988177
:10325800C82800F09181482840F0CD80B648FEF794
:10326800D1F82070002001232B8015B030BDBCF1AF
:10327800030F4ADDD82800F0C58100F26D81582877
:1032880000F04F81982800F0C481182840F0BF81D1
:10329800A948FEF707F92060002004232B8015B009
:1032A80030BDA02800F08F80E0286FD000232B804D
:1032B8000520A7E7BCF1010F27DDB0F51D6F00F071
:1032C8002E8344D8B0F58A6F00F0248340F29580AD
:1032D800B0F5056F00F0288300F2BB81B0F5BA6F36
:1032E80000F0A38200F26082B0F5926F00F045838F
:1032F800B0F5B26F40F03D82904804F081FB208029
:10330800002002232B8015B030BD082015B030BD39
:10331800B0F50A7F00F0BD80B0F55A7F00F0398122
:10332800B0F5F47F40F03081042323808248FEF713
:1033380005F9034663808048FEF704F923880246AE
:1033480002330020A2809BB22B8015B030BD41F221
:103358009043984200F0D28266D8B0F53D6F00F0F5
:10336800118300F26381B0F5296F00F0FF8200F24B
:10337800E681B0F5216F00F0C682B0F5256F40F008
:10338800F8816D48FEF720F92080B9E76C4B1A6880
:1033980001232B8002F1240192F924207AB11FFA2B
:1033A8008CFC08E004F8012B2B8801339BB22B809E
:1033B80011F9012F1AB19C45F4D8062022E7002301
:1033C800237000201EE75F4A012311682B8091F9C2
:1033D8000020002AF3D01FFA8CFC09E004F8012B26
:1033E8002B8801339BB22B8011F9012F002AE6D0DC
:1033F8009C45F3D8E1E7052035E7B0F5047F00F0F8
:10340800618200F23981B0F5887F00F03D8200F2D8
:10341800C081902800F0A082D02840F0AA814A48B4
:1034280004F004FD20806BE741F21063984200F03D
:10343800358200F2338141F25053984200F01F82E6
:1034480000F2998141F2D043984200F08A8241F219
:103458001053984240F08D813C4804F0EDFC2080E8
:103468004EE7B0F5947F40F08F801FFA8CFC0C2259
:10347800BCF10D0F228040F22981354A506814684A
:103488009168D268DA6058601C60996000200E2349
:103498005AE71FFA8CFC2823BCF1290F238040F23D
:1034A80012812C4BB3F90E20B3F9100099892181B0
:1034B80002EB4202E0805200B3F91C00C4F802207B
:1034C800B3F91A20198B218202EB4202E0815200E3
:1034D800B3F92800C4F80A20B3F92620998C21836F
:1034E80002EB4202E0825200B3F93400C4F8122021
:1034F800B3F93220198E218402EB4202E083520094
:10350800B3F94000C4F81A20B3F93E20998F2185F9
:1035180002EB42025200E084C4F822202A23002051
:1035280012E70548FEF716F800EB4000400020605F
:10353800B2E6084666E600BF0000002088030020C7
:103548001C040020240400204C030020F402002066
:103558002804002048020020B0F58C7F61D041F695
:103568005833984253D1B64B186804F0F3FC8DEDEC
:10357800010A019B23608FE6B24B93F8480070E67E
:10358800B148FDF795FF6CE62388023305209BB20E
:10359800DAE604232380AC48FEF702F8034663808A
:1035A800A9481293FDF7FCFF2388C0F30F400233AC
:1035B800A0809BB20020C7E6A348FDF7BBFF00EB45
:1035C80040004300C4F802309F48FDF7BBFF0623C4
:1035D800E080238000200823B6E61FFA8CFC3C22FA
:1035E800BCF13D0F228000F28E803E230820ABE61E
:1035F8001FFA8CFC0E22BCF10F0F228076D8102304
:103608000820A1E6914BD3F80031236044E6052059
:1036180043E68D48FDF7A2FF00EB40004000206024
:103628003AE68A4BD3F8FC30236035E6B0F5496FAB
:1036380000F0868100F28F80B0F5416F00F079814B
:10364800B0F5456F40F09580804806F02BF9208052
:1036580056E6B0F5116F00F0418100F2C380B0F575
:10366800096F00F03481B0F50D6F40F08280764824
:10367800FDF78CFF208043E6B0F5447F00F0188109
:1036880000F2A080B0F5247F00F00D81B0F5347F02
:103698006FD16F4804F0CAFB208031E641F6101361
:1036A800984200F0798100F2AB8041F25063984271
:1036B80000F06D8141F6D00398425AD1654804F074
:1036C800C5FB20801CE62A2308203DE60E2308209F
:1036D8003AE6614A1268506814689168D268DA60FC
:1036E80058601C609960002012232DE65B4A12681E
:1036F8001068516894689C601860596092899A8132
:103708000020102320E6564A126802F1300E146891
:1037180050689168D2F80CC0C3F80CC010327245DA
:103728001C605860996003F11003F0D1106851686B
:1037380092689A601860596000203E2304E6B0F54C
:10374800356F00F00481B0F5396F12D13F4805F0AC
:103758005DFD2080D4E541F25043984200F08A8014
:1037680007D8B0F5656F3FF4CBADB0F5696F3FF49E
:10377800C7AD0520C5E541F29053984200F0898015
:1037880041F2D0539842F4D1364804F055FB2080DA
:10379800B6E5B0F5C87F4DD0B0F5E87FE9D131483E
:1037A80004F044FB2080ABE5B0F5FA6F00F08580AB
:1037B800B0F5016FDDD12448FDF7D4FEC0F30F4307
:1037C80023809DE5B0F5547F00F08F80B0F5647FCD
:1037D800CFD11E4813AA12A906F07AF8BDF84C30CA
:1037E80023808DE5B0F5156F00F0DB80B0F5196F1B
:1037F800BFD11548FDF7D4FEC0F30F4323807FE502
:1038080041F6D0239842B4D1174B184AB3F908307F
:1038180003EB830303EB83039B0082FB03121A442D
:10382800DB17C3EBA23323806AE5114804F0C2FA20
:10383800208065E50B4804F0F5FA208060E500BFBC
:103848002C00002048020020000000207C000020FE
:10385800F4020020B00000201804002020040020FA
:103868001C040020200300205800002003000180D1
:10387800B40300204D4804F0DFFA208040E54C48AE
:1038880004F0E4FA20803BE5484804F0FBFA208085
:1038980036E5474804F0FAFA208031E5454804F057
:1038A800D5FA20802CE5424804F0BCFA208027E5B0
:1038B8003F4804F0E7FA208022E53F48FDF752FE32
:1038C80020801DE53B4804F0DDFA208018E53A48E1
:1038D800FDF752FEC0F30F43238011E53648FDF78C
:1038E80055FEC0F30F4323800AE5344813AA12A9F2
:1038F80005F0EEFFBDF84830238001E52B4804F0C1
:10390800A5FA2080FCE42C48FDF754FEC0F30F43D1
:103918002380F5E42A4804F089FA2080F0E4264858
:10392800FDF748FE2080EBE42348FDF725FE2080C4
:10393800E6E4224805F0BAFFC0F30F432380DFE432
:103948001E4805F0AFFFC0F30F432380D8E41B4B9C
:10395800B3F904302380D3E4144804F063FA2080D8
:10396800CEE4124804F092FA2080C9E41248FDF728
:103978002BFEC0F30F432380C2E4114804F052FA2F
:103988002080BDE40D4805F091FF2080B8E4094887
:1039980004F07CFA2080B3E4094804F04DFA208052
:1039A800AEE40548FDF7FCFD2080A9E44C030020A7
:1039B800F402002020030020000000207C000020EA
:1039C800B000002000F038000838C0B210289ABFB4
:1039D800014B185C00207047749E000800F0380303
:1039E800102B03D0424B05200B60704720F00700D6
:1039F800B0F51D6F82B268D012D8B2F50D6F5FD0E6
:103A080020D8B2F5056F65D04DD8B2F5FA6F3BD026
:103A1800B2F5016FE6D1374B5B6800200233E3E76C
:103A2800B2F5356F34D01BD8B2F5256F43D0B2F557
:103A3800296F24D0B2F5216FD4D12E4B5B680020BA
:103A48001833D1E7B2F5156F4CD0B2F5196F22D003
:103A5800B2F5116FC6D1274B5B6800200E33C3E760
:103A6800B2F5456F3BD0B2F5496F19D02248204BCB
:103A7800B2F5396F0ABF034605200020B4E71D4B95
:103A88005B6800201C33AFE71A4B00205B68ABE78C
:103A98001A4B0020A8E7174B5B6800201233A3E7F6
:103AA800174B0020A0E7B2F5096F9BD1114B5B685B
:103AB8000020063398E70F4B5B6800201A3393E722
:103AC8000C4B5B6800200C338EE70A4B5B680020C8
:103AD800163389E7074B5B680020043384E7094BFA
:103AE800002081E7034B5B68002010337CE700BFB0
:103AF800D41B002000000020880000208000002047
:103B0800EE000020EC00002070B58C4C2268002AE2
:103B180033D090F804C0137963451ED0616800293A
:103B280000F0D3800B79634536D0A568002D00F0EE
:103B3800AD80FF222B79634500F0B880E568002D41
:103B480000F0BC802B79634500F0CE80032A98BF33
:103B5800036836D9FF22027370BD03681268934266
:103B680031D06168002900F0DA800A79624500F0F6
:103B7800CB80A568002DDCD189E06168002900F0C0
:103B8800A88090F804C00B79634506D0A568002D7D
:103B9800D0D103682A460BE0FF22036809689942DE
:103BA80000F0A880A568002DC4D1042A6FD82A4641
:103BB800E16831B10D79654503D10968994200F092
:103BC8008180114601E0002211465D4D44F8210034
:103BD8000024A64645F831409C6862F3070EE607C4
:103BE80062F30F2E22D45C6824F004045C60042481
:103BF8001C605C6824F020045C6020241C609C68C5
:103C080024F0404424F03F0444F000449C609C6845
:103C1800002CFCDB1C68E50708D44A4D9C682C4046
:103C280044F001049C601C68E407F7D5464D01EB9D
:103C380041014C002E1D012126F804E04FF0000E32
:103C480005F804E01C6B01FA0CF124F00F04BCF138
:103C5800090F1C6341EA8C610CEB4C041FD841EA44
:103C68000451CD0D05F00405143386685C59C1F381
:103C780004514FF0070E06FA01FC0EFA01F124EA8E
:103C8800010141EA0C015951027370BD0368E268F1
:103C980012B1117961453ED00222114695E71E3CCA
:103CA80041EA045141F00071DBE70A4603682968DC
:103CB80099427FF443AF0222114686E7042A03683B
:103CC8007FF67FAF032211467FE7A568CDB10122B9
:103CD80030E7A568D5B190F804C02B796345E4D0E6
:103CE800E56855B10A462DE72968036899427FF4CB
:103CF8002DAFE7E70122114667E72A460368114618
:103D080063E70368012253E7FF2247E790F804C0FE
:103D180003682A464CE712689A42D3D0BCE7A568E4
:103D2800002DEFD02A79624506D0E5680122002DE2
:103D38007FF408AF114648E70122B8E71C1C0020B1
:103D4800FC1B0020C0FFFF7FE41B002030B5037B75
:103D58005E4A03EB43014FEA430C12F811000028B6
:103D680038D1117891B904209179002975D1117B46
:103D7800002977D1917C002900F09A80D17D994261
:103D880040F2A0804FF0030E704603E051798B4259
:103D9800EAD286460CEB030402EB440400EB400035
:103DA800617101EB410184F804E002EB4101484CE8
:103DB8000B7102EB4000217843710CEB03000125E5
:103DC80001EB410122F8105002EB41014978A94268
:103DD80018BF23703F4991F8A010002938D13E49F7
:103DE80051F823100C7908680121092C04EB4405CB
:103DF80001FA04F141EA846184BF1E3D41EA05519C
:103E0800046B94BF41EA055141F00071090D01F4BA
:103E1800F86124F4F86421430163016C816821F09E
:103E2800004121F03F0141F0040181600168490728
:103E3800FCD50CEB030102EB4101006C244D91F819
:103E480005E085F800E020F00F00022448804C705F
:103E58009C4402EB4C02508830BDD17A8B421DD372
:103E6800117BF9B1517C994228D8917C002985D1E0
:103E78000221084600EB40000CEB030402EB44046B
:103E880002EB400021714179617101EB410102EBC4
:103E980041010F4C0B71437121788EE74FF0010EF1
:103EA800704677E7917C00297FF468AF0121E0E74D
:103EB8000028DED0064C194623707EE74FF0020E2C
:103EC800704667E703200146D4E700BFE41B0020E3
:103ED800E01B0020A40100201C1C0020144B2DE92D
:103EE800F0411C6824B1134D267B2B78012B01D09F
:103EF800BDE8F0812046FFF729FF0F4B18800F4BD4
:103F080006EB460203EB420301465B780BB1022342
:103F18002B700B4B53F83670002FE9D003EBC60318
:103F280020465A6800232B703B46BDE8F0411847ED
:103F3800D81B0020DC1B0020DE1B0020E41B002017
:103F4800FC1B00201E4B1F491A7802EB420311F894
:103F58001330A3B31C4B10B553F82230186804244F
:103F6800046093F804C001230CEB4C04BCF1090F66
:103F780003FA0CF343EA8C6384BF1E3C43EA045300
:103F88004FEA420E98BF43EA0453964488BF43F071
:103F98000073026B1B0D03F4F86322F4F8621343F9
:103FA8000363036C836823F0004301EB4E0123F0A5
:103FB8003F03012443F0040383604C7010BD704735
:103FC800E01B0020E41B00201C1C002030B4124819
:103FD800124A037803EB430112F8114002EB410146
:103FE8006CB10F4C54F82340246825686D074FEADC
:103FF800430C06D49C4402EB4C025379037030BC4A
:1040080070474D7815F0FD0FF4D0246C24F00F04A0
:104018004C8002244C70EDE7E01B0020E41B0020DC
:104028001C1C0020444BDA69520610B509D54349D7
:104038004348CA69402422F00102CA611C62FCF7A5
:1040480003FC3D4BD869DA69D9699B684C076AD586
:10405800D8071ED5384B0E221A624FF0402202F5BF
:10406800816353E8003F23F0010302F5816040E8D3
:1040780000310029F3D14FF0402202F5806353E864
:10408800003F43F0100302F5806040E8003100294A
:10409800F3D1294BDA691B68D20643D5DB0641D533
:1040A8004FF0402202F5806353E8003F23F01003ED
:1040B80002F5806040E800310029F3D14FF040223A
:1040C80002F5816353E8003F43F0010302F5816084
:1040D80040E800310029F3D14FF0402202F5816316
:1040E80053E8003F23F0400302F5816040E80031C7
:1040F8000029F3D1104B5B6A4FF0402202F581632F
:1041080053E8003F43F0400302F5816040E8003186
:104118000029F3D1094B0A480222BDE810405A6031
:10412800FCF788BD10BDD907B3D502F0020200F034
:10413800080002438ED1ACE7004400400000024072
:104148007404002008B5FDF71BFCFEE710B50D4C04
:104158002378022B0FD00133DBB20B4A237013688C
:104168009B0704D5022309485360FCF713FDBDE8FB
:104178001040FDF7BDBB00F0EBFB01F005FC01238F
:10418800EBE700BFFC04002000000240740400209C
:10419800044B5A69520500D470474FF480625A6143
:1041A800FDF7FCBB0004014000B50E4B1A6E42F04F
:1041B800010283B01A661A6E02F001020092009A98
:1041C8009A6D42F080529A659B6D03F0805301937B
:1041D8000420019B01F04EFB03B05DF804EB02F0F4
:1041E80013B800BF0010024010B504469CB000216F
:1041F80044220BA8CDE90611CDE908110A9105F072
:1042080091FC2368B3F1A04F04D0434A934246D0AF
:104218001CB010BD4FF400424FF080530BA80B9216
:104228001A9302F0ADFB00286AD13C4A13680133A7
:10423800012B136009D13A4BDA6C42F40052DA646C
:10424800DB6C03F400530193019B354BDA6C42F0AD
:104258000102DA64DA6C02F001020292029ADA6C64
:1042680042F00202DA64DB6C0520032103F002034A
:10427800CDE906010393002406A94FF09040039B63
:10428800089401F019FD44F202020323254808941A
:1042980006A9CDE9062301F00FFD1CB010BD4FF4AF
:1042A80000424FF080530BA80B921A9302F068FB60
:1042B80048BB1A4A13680133012B136009D1184B04
:1042C800DA6C42F40052DA64DB6C03F400530493B2
:1042D800049B134BDA6C42F00102DA64DB6C9FED4D
:1042E8000C7B03F00103059306A900234FF09040CF
:1042F8008DED067B059A089301F0DEFC1CB010BD1D
:10430800FCF7CEFF91E7FCF7CBFFD2E7AFF30080D5
:104318004000000003000000000100502C1C002099
:10432800001002400004004800B5026834498BB010
:1043380000238A42CDE90433CDE90633089308D037
:10434800304B9A421ED0304B9A4234D00BB05DF8B5
:1043580004FB03F1804303F504339FED237BDA6C00
:1043680042F00102DA64DB6C03F00103019304A953
:104378004FF090408DED047B019B01F09DFC0BB04C
:104388005DF804FB03F5863303F5FE73DA6C42F03F
:104398000102DA64DB6C9FED167B03F001030293E4
:1043A80004A94FF090408DED047B029B01F084FC42
:1043B8000BB05DF804FB03F5863303F5FA73DA6C8A
:1043C800124842F00202DA64DB6C9FED0B7B03F0CB
:1043D8000203039304A98DED047B039B01F06CFC9D
:1043E8000BB05DF804FB00BF0200000003000000F2
:1043F800800000000300000001000000030000002E
:1044080000020140040201400C020140000400487F
:10441800094B02689A4200D07047D3F8482442F00A
:10442800080282B003F580639A649B6C03F008036A
:104438000193019B02B07047000C02400A4B0268CE
:104448009A4200D0704703F1704303F5003382B0FD
:10445800DA6C42F48022DA64DB6C03F48023019383
:10446800019B02B0704700BF001000500000000020
:1044780000B5026834498BB000238A42CDE9043381
:10448800CDE90633089308D0304B9A421ED0304B02
:104498009A4233D00BB05DF804FB03F1804303F577
:1044A80004339FED237BDA6C42F00102DA64DB6CA3
:1044B80003F00103019304A94FF090408DED047BB4
:1044C800019B01F0F9FB0BB05DF804FB03F58633A3
:1044D800FC33DA6C42F00102DA64DB6C9FED167B88
:1044E80003F00103029304A94FF090408DED047B83
:1044F800029B01F0E1FB0BB05DF804FB03F586338A
:10450800F833DA6C134842F00202DA64DB6C9FED90
:104518000C7B03F00203039304A98DED047B039B3A
:1045280001F0CAFB0BB05DF804FB00BFAFF30080DD
:104538000E00000003000000E0000000030000007F
:1045480007000000030000000003014004030140CD
:104558000803014000040048094B02689A4200D051
:10456800704703F5644382B01A6E42F400621A661B
:104578001B6E03F400630193019B02B0704700BFF8
:10458800002C014070B52B4A01688AB00023914283
:10459800CDE90433CDE90633089301D00AB070BDE4
:1045A80003F1804303F504334FF40050DA6C42F012
:1045B8000402DA64DA6C02F004020192019ADA6CFD
:1045C80042F00202DA64DA6C02F002020292029A03
:1045D800DA6C42F00102DA64DB6C022103F00103B9
:1045E800CDE90401022402250393042604A91248F4
:1045F800039B0896CDE9064501F05EFB04A94FF43C
:10460800004202230D480896CDE90423CDE906456A
:1046180001F052FB4FF4B8520223CDE9042304A958
:1046280006234FF09040CDE90645089301F044FB7E
:104638000AB070BD002C0140000800480004004882
:1046480070B5044698B00021442207A8CDE90211AC
:10465800CDE90411069105F065FA354B22689A42B6
:1046680001D018B070BD022307A8079302F088F99B
:1046780000284CD12F4B30489A6D304E42F400320E
:104688009A659A6D02F400320092009ADA6C9FEDF6
:10469800247B42F00202DA64DB6C8DED027B9FED35
:1046A800227B03F00203019302A90723019A0693D0
:1046B8008DED047B01F000FB21491A220023C6E995
:1046C800001230468022C6E90233C6E90423C6E94F
:1046D8000633336201F05EFAF8B91A4D1A49C4F884
:1046E80080601B220023C5E9001228461021802281
:1046F800C5E90213C5E90533C5E90733B4622A6180
:1047080001F048FA30B9E567AC6218B070BDFCF743
:10471800C7FDAFE7FCF7C4FDF5E7FCF7C1FDDCE733
:104728001800000002000000000000000000000067
:1047380000440040001002400004004888050020A2
:1047480008000240280500201C000240024B4022BD
:104758001A60FDF751B800BF00010050034B044830
:104768006FF001021A6104F07FB900BF002C01400C
:10477800A401002008B50C4B1A69120605D56FF084
:1047880080020A481A61FEF7B7F807490B69DB058A
:1047980005D56FF4807305480B61FEF7CDF8BDE8C9
:1047A8000840FDF7A5B800BF002C0140A401002077
:1047B80030B4026802F1080151E8003F43F00103F8
:1047C80041E80034002CF7D1C168194D43686C5C8E
:1047D800234402F1240199604023136202F1080185
:1047E80051E8003F43F0400341E80034002CF7D182
:1047F8004023136252E8003F43F0400342E800318F
:104808000029F7D102F1080151E8003F43F0800385
:1048180041E80034002CF7D101698368695C0B44D6
:1048280002F128004021986030BC1162704700BF37
:10483800889E00080369806810B40B4CE35CC45878
:10484800E40700EB030C0CD4CCF80C10DCF80410D3
:104858006FF30F010A43CCF80420C25842F001025A
:10486800C2505DF8044B7047889E000810B4C368B6
:104878000C4C4068E35CC45800EB030C24F00104C2
:10488800C450CCF80C10DCF804105DF8044B6FF33E
:104898000F011143CCF80410C25842F00102C25073
:1048A800704700BF889E000802681023136252E810
:1048B800003F43F0100342E800310029F7D1704768
:1048C800034AD2F8883043F47003C2F8883070473E
:1048D80000ED00E038B50F4B1B680BB9012038BD5F
:1048E8000D494FF47A720546B2FBF3F30868B0FB42
:1048F800F3F001F02DF804460028EFD10F2DEDD884
:10490800024629464FF0FF3000F0C6FF034B204611
:104918001D6038BD040500200005002008050020A2
:104928000A4A136843F4807310B50320136000F03B
:10493800A1FF0420FFF7CEFF10B10124204610BDCF
:104948000446FFF731FC204610BD00BF002002409E
:10495800034A0449136809680B441360704700BF91
:10496800301C002004050020014B1868704700BF68
:10497800301C002030B583B000230193002800F0DC
:10498800AA80C56D0446002D00F0AA8022689368AD
:104998009D0005D5936823F0204323F03F039360DF
:1049A8009368D80019D4684B68481B6891689B09BC
:1049B800A0FB030321F010419B0921F03F010133C3
:1049C8005B0041F0805191600193019B2BB1019BE9
:1049D800013B0193019B002BF9D19368D9007DD449
:1049E800E36D43F01003E365236E01200343236660
:1049F800936813F0040FE36D69D1DB0667D4E36DA8
:104A080023F4817343F00203E3659368DD0709D457
:104A18004FF0A0439B6813F0010F4D4B9B6801D1E9
:104A2800D9077AD5E568E36B94F824102B43A56879
:104A38002B43657F012943EA453343EA014355D0B7
:104A4800E16A21B1256B01F4787129430B43D568DC
:104A5800404929401943D1601369616B23F04063D1
:104A68000B43136193681B0722D4D16894F838303C
:104A7800257F21F480415B0021F0020143EA853360
:104A88000B432169D360136900293CD043F4803378
:104A98001361D2F8C0306FF30D030B43C2F8C03076
:104AA80094F84030012B40D0136923F001031361BF
:104AB8006369012B1FD0136B23F00F031363E36D9E
:104AC80023F0030343F00103E36503B030BDE36D56
:104AD80043F01003E365012003B030BD002087E7F1
:104AE800FFF782FB256684F858504FE7A16A013921
:104AF80043EA4143A4E7116B236A21F00F01013B0C
:104B08000B431363DBE723F480331361D2F8C0301F
:104B18006FF30D03C2F8C030C2E70F4965688B68B0
:104B280023F47C132B438B607CE71169636CA56CC1
:104B38006FF38A012B430B43E16C0B43216D0B434D
:104B480043F001031361B3E700050020632D3E0520
:104B5800000100500740F0FF000300502DE9F0412C
:104B680090F8582082B00346012A4FF000000190C7
:104B780000F02D811A68012083F8580094686407B2
:104B880055D448684FEA901E00F01F0C0EF00C0E2A
:104B9800086802F13004C0F3846054F80E501F26F0
:104BA80000FA0CF006FA0CFC25EA0C0C40EA0C00A2
:104BB80044F80E009068470743D5906808689468E1
:104BC800E50712D4CE68B04CD2F8B05006F01807FA
:104BD800FC40C0F31207044025EA07052C43C2F83D
:104BE800B040AA4CA64200F0A280A94908421CD0B5
:104BF800A84CA94DA168A84201F0E07674D0A74D51
:104C0800A84271D0A64DA84200F0E580A54DA84263
:104C18000BD1490209D4A4498A4206D0A26822F0DD
:104C2800E072324342F48002A260002003E0DA6DB1
:104C380042F02002DA65002283F8582002B0BDE86D
:104C4800F081946808682607B9D48D68C0F30456C3
:104C58000724C00DB440B5F1004F00F004006FEA1E
:104C6800040400F0078102F11407B5403E583440AF
:104C78002C433C50506920F000405061D1E9046455
:104C88000868D568042E074600F0C880C5F3C1053A
:104C98006D0000F0F84704FA05F002F16004834D56
:104CA80054F826C00CEA05053D43284340F000406F
:104CB80044F826000D698E6954F8250020F08070AC
:104CC800304344F825000E690D7F54F82600A5F1FD
:104CD8000105B5FA85F56D0920F0007040EA4560D8
:104CE80044F8260008686AE70C029ED4B2F1A04F87
:104CF8009BD168496E488A6822F0E072324342F4D8
:104D080000028A6002686B499209A1FB02129209AB
:104D1800013202EB420292000192019A002A84D0E9
:104D2800019A013A0192019A002AF9D17DE7002FF0
:104D380060D090FAA0F4002C00F0BE80B4FA84F49D
:104D4800013404F01F04092C40F2B68090FAA0F454
:104D5800002C00F05781B4FA84F40134A40604F05E
:104D6800F84490FAA0F5002D00F05681B5FA85F5C3
:104D7800013505F01F05012606FA05F52C4390FAC2
:104D8800A0F0002800F04681B0FA80F0451C05F03C
:104D98001F0503206FF01D0610FB0560000540F09D
:104DA80000702043C50D8C6805F0040502F1140657
:104DB800C0F3045004FA00F74FF0070C74590CFACA
:104DC80000F024EA00003843705108680DE702201B
:104DD80002B0BDE8F081C8013FF527AF32498A42E9
:104DE8003FF423AFA26822F0E072324342F08072AF
:104DF800A2601AE7800E013000F01F05012480062A
:104E080000F0F840AC40092D44EA000405EB4500E9
:104E180077D91E38000540F00070C2E7146E146E92
:104E2800C0F31205C4F38464002D6CD1C0F3846010
:104E3800844200F0A080546E556E02F16004C5F300
:104E4800846502F1640E854200F0C080A568A568FB
:104E580004F1080CC5F38465854200F0A180E5687B
:104E6800E56804F10C06C5F38464A04200F0C48030
:104E78003846A4E602F1140635582C4034505069DF
:104E880040F000405061F9E6FFFF070000007F4056
:104E98000000088000030050000021C31000C090EB
:104EA800000052C7000084CB0001005000F0FF034F
:104EB80000050020632D3E0590FAA0F4002C00F0B8
:104EC800B780B4FA84F40134A40604F0F84490FAE4
:104ED800A0F5002D00F0AA80B5FA85F5013505F09A
:104EE8001F05012606FA05F52C4390FAA0F00028C4
:104EF80000F09980B0FA80F0013000F01F0000EB5C
:104F0800400000054DE790FAA0F51DB1B5FA85F50A
:104F1800AC4230D0546E556E02F16004C5F384651E
:104F280002F1640E97FAA7F604F1080CE046002E89
:104F380074D0B6FA86F6AE424AD0DCF80050DCF8F7
:104F48000050C5F3846597FAA7FE04F10C06B04635
:104F5800BEF1000F59D0BEFA8EFEAE4522D034689D
:104F68003468C4F3846497FAA7F5002D3FF427AE9C
:104F7800B5FA85F079E7106E144620F0004044F841
:104F8800600F0F68506E556EC7F3120602F1640E7B
:104F9800C5F384653846002EC4D1C7F3846052E750
:104FA80004F10C08DCF8000020F00040CCF8000008
:104FB8000F68E068E468C7F312054646C4F38464E2
:104FC8003846002DCFD1C7F384604EE704F10808B6
:104FD800DEF8000020F00040CEF800000F68A0685E
:104FE800A568C7F31206C446C5F384653846002E83
:104FF800A9D1C7F384602FE7306820F00040306003
:105008000868DCE54FF08064ABE6E568E468C4F363
:105018008464A8E70848C4E60225AFE6A568A56841
:10502800C5F384658FE74FF44010BAE602255BE7C5
:105038004FF080644BE700BF000050FE2DE9F043BD
:1050480090F8583083B00246012B4FF000000190D1
:1050580000F075810123556982F85830D1E9004084
:105068001368002D72D00D6A012D6FD0976E00F075
:105078001F00C4F384668640002F40F01A81886AB6
:10508800013D002800F01E82CF6A00F07C00284312
:1050980038433043C2E919059868000710D491F8DD
:1050A800260091F825504005002D40F0F780DD6876
:1050B80091F8246025F4401540EA06502843D8604A
:1050C800986810F0040057D0986800209D68EE0793
:1050D80014D4CF68A34DD3F8B06007F0180C25FAA4
:1050E8000CF5C4F3120E254026EA0E0C45EA0C0511
:1050F800C3F8B0509C4DAF4200F0F6809B490C427B
:105108001ED09B4E9B4DB168AC4201F0E07700F099
:105118009F80994DAC4200F09B80984DAC4200F0C6
:105128001281974DAC420BD1490209D495498B4263
:1051380006D0B36823F0E0733B4343F48003B360C5
:10514800002382F8583003B0BDE8F0830928A3D1C2
:10515800886A650C05F4785520B1CE6A00F07C00A9
:1051680030430543D86C884E30402843D86498684B
:1051780055660007A4D492E79D682F07A6D48D6AC8
:1051880091F82500002D40F0A6800128D86800F08D
:105198009B8120F00070D860002091F83050012DDC
:1051A80000F085811D6925F002051D618E68C4F334
:1051B80004570725E40DBD40B6F1004F04F0040480
:1051C8006FEA050500F0698103F1140CBE405CF834
:1051D80004703D4035434CF804505C6924F00044A9
:1051E8005C610F690C684D69DE68042FA44600F005
:1051F8000C81C6F3C106760004F0F84C05FA06F4F3
:1052080003F16005614E55F827E00EEA060646EA06
:105218000C06344344F0004445F827400F698E6972
:1052280055F8274024F08074344345F827400F6927
:105238000E7F55F82740A6F10106B6FA86F67609DC
:1052480024F0007444EA466445F827400C683DE7BA
:105258000D023FF575AFB3F1A04F7FF471AF44492C
:105268004B4C8B6823F0E0733B4343F400038B60A3
:10527800236848499B09A1FB03139B0903EB4303DC
:105288009B0018330193019B002B3FF459AF019BFE
:10529800013B0193019B002BF9D151E7DD6825F40F
:1052A80040152843D860986810F004003FF464AFB4
:1052B8000AE7556E013F354397665566002F7FF420
:1052C800EBAED86C304E30402843D864986800075D
:1052D8003FF5F6AEE3E6CD6A002D3FF456AF012860
:1052E80000F01881D86854E7BEF1000F54D1A40E1D
:1052F800013404F01F060125A40604F0F844B54063
:10530800092E45EA040506EB460400F2FE80240552
:105318002C43E60D8D6806F0040603F11407C4F368
:10532800045405FA04FC4FF0070EBD590EFA04F4B4
:1053380025EA040444EA0C04BC510C68DEE60220A9
:1053480003B0BDE8F083CC013FF5FAAE0D498B42BE
:105358003FF4F6AEB36823F0E0733B4343F0807349
:10536800B360EDE6FFFF070000007F400000088003
:1053780000030050000021C31000C090000052C775
:10538800000084CB000100500040100400F0FF032F
:1053980000050020632D3E0594FAA4F5002D00F0C9
:1053A800BE80B5FA85F5013505F01F05092D40F2D7
:1053B800B68094FAA4F5002D00F02B81B5FA85F596
:1053C8000135AD0605F0F84594FAA4F6002E00F074
:1053D8001E81B6FA86F6013606F01F06012707FA7F
:1053E80006F6354394FAA4F4002C00F00981B4FAC7
:1053F80084F4661C06F01F0603246FF01D0714FBD7
:105408000674240544F0007482E71D6E1D6EC4F313
:105418001206C5F38465002E5AD094FAA4F626B174
:10542800B6FA86F6B54200F0CE805D6E5E6E03F188
:105438006005C6F3846603F164089CFAACF705F1CD
:10544800080EF146002F00F0DD80B7FA87F7B74263
:1054580000F0A380DEF80060DEF80060C6F3846622
:105468009CFAACF805F10C07B946B8F1000F00F04A
:10547800D380B8FA88F8B04577D03D683D68C5F361
:1054880084659CFAACF6002E3FF420AEB6FA86F49A
:10549800AC4200F0AF80644618E603F114073E59A9
:1054A80035403D515C6944F000445C6199E6D1E9BE
:1054B8000D571E693D4326F4FF76354345F0020536
:1054C8001D6173E62846E4E540F00070D86063E6A5
:1054D800C4F38464A54276D05D6E5E6E03F1600508
:1054E800C6F3846603F16408A64254D0AE68AE6879
:1054F80005F1080EC6F38466A64234D0EE68EE685D
:1055080005F10C07C6F38465C2E71E3C240544F088
:105518000074FDE6D56D45F02005D5653DE694FAA5
:10552800A4F5002D00F08280B5FA85F50135AD06A9
:1055380005F0F84594FAA4F6002E75D0B6FA86F66A
:10554800013606F01F06012707FA06F6354394FAD6
:10555800A4F4002C65D0B4FA84F4013404F01F04D8
:1055680004EB4404D3E605F10C09DEF8004024F00E
:105578000044CEF80040D1F800C0EC68ED68CCF3E8
:1055880012064F46C5F384656446002E7FF479AF52
:10559800CCF384647CE705F10809D8F8004024F0CE
:1055A8000044C8F80040D1F800C0AC68AE68CCF33D
:1055B8001207CE46C6F384666446002F7FF450AFC8
:1055C800CCF3846498E71C6E1D4624F0004445F82B
:1055D800604FD1F800C05C6E5E6ECCF31207C6F364
:1055E800846603F164086446002F7FF426AFCCF389
:1055F800846479E73C6824F000443C600C6865E505
:105608000C4C85E6AE68AE68C6F3846628E70226C9
:10561800E7E64FF08065D7E6EE68ED68C5F3846588
:105628002FE74FF4401473E602268FE74FF08065AA
:1056380080E700BF000050FE90F85820012A45D0AE
:10564800F0B404689CB0034600220120B4F1A04FD6
:10565800189283F85800199208D0D96D83F8582009
:1056680041F02001D9651CB0F0BC7047224A90680F
:1056780040070BD5A268DA6D42F020020120DA65F6
:10568800002283F858201CB0F0BC7047A06845077A
:10569800F1D40D68E5B1194E4F68B06893F838C079
:1056A80020F46040384340EA4C30B060A06892680B
:1056B800C0071ED4D7071CD4B268896822F4716267
:1056C8000D4322F00F021543B56012E00220704727
:1056D8000A48816821F460418160A1689268CD0719
:1056E80007D4D40705D4826822F4716222F00F022D
:1056F80082600020C4E700BF000100500003005092
:1057080030B583B000230193002851D00268136894
:10571800002B04464CDB437F03F0FF01002B73D0C2
:10572800D4E901036169156803430B43E168106814
:105738000B4321690B433C4901400B431360136839
:105748001B0201D52D0249D5384B9A4262D0384BFD
:105758009A4264D004339A4215BF6FF080426FF0CA
:1057680000524FF080414FF00051A369980722D0B2
:10577800304DA86813F0100F14BF08431040A860FC
:105788002C4DE86813F0200F14BF08431040E86060
:1057980028484161456813F0020F14BF0D431540B6
:1057A800DB07456015D5234B1A681143196009E0DA
:1057B800012003B030BD1F4B59681140596019686A
:1057C8000A401A60637F0BB901236377002003B096
:1057D80030BD18490B6813400B60F3E7164B1749A7
:1057E8001B689B09A1FB03139B09013303EB83038C
:1057F8009B000193019B002BA6D0019B013B0193C9
:10580800019B002BF9D19FE701770162FEF78CFD20
:10581800226885E76FF400124FF40011A5E76FF4D2
:1058280080024FF48001A0E70F7E00FF00020140D4
:10583800040201400004014000050020632D3E05DC
:10584800B0B110B590F82130044603F0FF0253B10F
:1058580000200123606284F82130C4E90100C4E912
:105868000300606110BD80F82020FEF7D1FDEFE74E
:10587800012070470749CA6803024FF6FF0003F486
:10588800E0630240134343F0BF6343F40033CB604B
:10589800704700BF00ED00E01B4BDB68C3F3022339
:1058A80000B5C3F1070EBEF1040F03F1040C28BFC5
:1058B8004FF0040EBCF1060F1CD9A3F1030C4FF0F6
:1058C800FF3303FA0CF322EA03024FF0FF3303FA23
:1058D8000EF321EA030303FA0CF313431B01002818
:1058E800DBB20ADB00F1604000F5614080F800336C
:1058F8005DF804FB00229446E7E7044A00F00F0035
:10590800024413765DF804FB00ED00E0FCEC00E0D7
:10591800002807DB044A4109012300F01F008340E7
:1059280042F82130704700BF00E100E0BFF34F8F1D
:105938000549064BCA6802F4E0621343CB60BFF323
:105948004F8F00BFFDE700BF00ED00E00400FA053F
:105958000138B0F1807F01D30120704710B44FF0B7
:10596800E023074C58614FF0F00C84F823C0002264
:10597800072110469A615DF8044B1961704700BF12
:1059880000ED00E0704700BF08B5FFF7FBFF08BD5A
:1059980088B110B50379044603F0FF023BB1002338
:1059A80002210122217123612271184610BD427122
:1059B800FEF744FDF3E70120704700BF002800F020
:1059C800C2802DE9F0410F46002900F0BE804379DE
:1059D800012B0546886800F0C78001236B710428F5
:1059E8004FF0020316462B716FD02B6802F0100699
:1059F800FA69012A08D1996B3A6A1F24B440B24067
:105A080021EA04010A439A63B969DA6BD7F814E00A
:105A1800012900F09580022900F09A80BEFA8EFCD8
:105A28004FEA5C1C3C797979A4F10104B4FA84F456
:105A3800A1F101016409B1FA81F14909240244EA9A
:105A4800412440F20731B14022EA01083A6844EAA9
:105A58000E040443022A44EA0C0428F440487AD08D
:105A680048EA0208B44044EA0804DC631A684FF4C0
:105A78008041B14022EA01021A60D7E903121C688A
:105A880040F6FE70B04024EA000401FA06F0204314
:105A980092011860C1F3830102F470620A43C024C2
:105AA8001968B44021EA04011960196E40F60F70B4
:105AB800B04021EA0001B24000240A4301211A66DD
:105AC800204629716C71BDE8F081FEF74DFF2B6807
