:020000040800F2
:100000000080002071100008C1100008E54E0008B3
:10001000C1100008C1100008C11000080000000055
:10002000000000000000000000000000C1100008F7
:10003000C110000800000000C1100008ED4E0008CB
:10004000C1100008C1100008C1100008C11000084C
:10005000C1100008C1100008C1100008C11000083C
:10006000C1100008C1100008C1100008C11000082C
:10007000C11000088D550008F9170008C1100008CC
:10008000C11000080000000099550008C1100008C8
:10009000C1100008C1100008C1100008C1100008FC
:1000A000C1550008A9550008C1100008C11000087A
:1000B000C1100008C1100008C1100008C1100008DC
:1000C000C1100008C1100008C1100008C1100008CC
:1000D000C1100008C1100008C54D0008C11000087B
:1000E000314F0008C1100008C1100008C1100008FD
:1000F000C1100008C1100008C11000080000000075
:1001000000000000C110000800000000C11000083D
:10011000C110000800000000C1100008C110000854
:10012000C1100008C1100008C1100008C11000086B
:10013000C11000080000000000000000C11000080D
:10014000C1100008C11000080000000000000000FD
:10015000000000000000000000000000000000009F
:10016000000000000000000000000000C1100008B6
:10017000C1100008000000000000000000000000A6
:1001800000000000C1100008000000000000000096
:10019000000000000000000000000000000000005F
:1001A0000000000000000000C1100008C11000089D
:1001B000C1100008C1100008C110000800000000B4
:1001C00000000000C1100008000000000000000056
:0801D000C1100008C110000875
:1001E00010B5054C237833B9044B13B10448AFF371
:1001F00000800123237010BDD40600200000000001
:10020000E4FF000808B5034B1BB103490348AFF3F3
:10021000008008BD00000000D8060020E4FF0008B0
:1002200001F0FF01102A2BDB10F0070F08D010F8A7
:10023000013B013A8B422DD010F0070F42B3F6D1AB
:10024000F0B441EA012141EA014122F007047FF0C4
:1002500000070023F0E80256083C85EA010586EA1B
:10026000010685FA47F5A3FA87F586FA47F6A5FA57
:1002700087F68EB9EED1F0BC01F0FF0102F0070263
:1002800032B110F8013B013A83EA010313B1F8D10E
:100290000020704701387047002D06BF35460338EF
:1002A000073815F0010F07D1013015F4807F02BF28
:1002B000013015F4C03F0130F0BC0138704700BF79
:1002C000034613F8012B002AFBD1181A0138704796
:1002D00081F0004102E000BF83F0004330B54FEAF7
:1002E00041044FEA430594EA050F08BF90EA020F64
:1002F0001FBF54EA000C55EA020C7FEA645C7FEAF7
:10030000655C00F0E2804FEA5454D4EB5555B8BF19
:100310006D420CDD2C4480EA020281EA030382EA8A
:10032000000083EA010180EA020281EA0303362D1C
:1003300088BF30BD11F0004F4FEA01314FF4801CEF
:100340004CEA113102D0404261EB410113F0004F01
:100350004FEA03334CEA133302D0524263EB4303B8
:1003600094EA050F00F0A780A4F10104D5F1200E56
:100370000DDB02FA0EFC22FA05F2801841F10001B1
:1003800003FA0EF2801843FA05F359410EE0A5F185
:1003900020050EF1200E012A03FA0EFC28BF4CF0B6
:1003A000020C43FA05F3C01851EBE37101F000456C
:1003B00007D54FF0000EDCF1000C7EEB00006EEB79
:1003C0000101B1F5801F1BD3B1F5001F0CD3490803
:1003D0005FEA30004FEA3C0C04F101044FEA44525A
:1003E00012F5800F80F09A80BCF1004F08BF5FEAE1
:1003F000500C50F1000041EB045141EA050130BDC1
:100400005FEA4C0C404141EB0101013C28BFB1F5D2
:10041000801FE9D291F0000F04BF01460020B1FA1D
:1004200081F308BF2033A3F10B03B3F120020CDAF0
:100430000C3208DD02F1140CC2F10C0201FA0CF0CE
:1004400021FA02F10CE002F11402D8BFC2F1200C33
:1004500001FA02F120FA0CFCDCBF41EA0C019040E9
:10046000E41AA2BF01EB0451294330BD6FEA040432
:100470001F3C1CDA0C340EDC04F11404C4F120021D
:1004800020FA04F001FA02F340EA030021FA04F32F
:1004900045EA030130BDC4F10C04C4F1200220FA86
:1004A00002F001FA04F340EA0300294630BD21FAC4
:1004B00004F0294630BD94F0000F83F4801306BF8A
:1004C00081F480110134013D4EE77FEA645C18BF7E
:1004D0007FEA655C29D094EA050F08BF90EA020F15
:1004E00005D054EA000C04BF1946104630BD91EA0D
:1004F000030F1EBF0021002030BD5FEA545C05D110
:100500004000494128BF41F0004130BD14F580044E
:100510003CBF01F5801130BD01F0004545F0FE41C2
:1005200041F470014FF0000030BD7FEA645C1ABFF7
:10053000194610467FEA655C1CBF0B46024650EA2E
:10054000013406BF52EA033591EA030F41F400215A
:1005500030BD00BF90F0000F04BF0021704730B5E0
:100560004FF4806404F132044FF000054FF00001B5
:1005700050E700BF90F0000F04BF0021704730B576
:100580004FF4806404F1320410F0004548BF40424B
:100590004FF000013EE700BF42004FEAE2014FEAA0
:1005A00031014FEA02701FBF12F07F4393F07F4F7B
:1005B00081F06051704732F07F4208BF704793F07E
:1005C0007F4F04BF41F40021704730B54FF4607491
:1005D00001F0004521F000411CE700BF50EA010294
:1005E00008BF704730B54FF000050AE050EA01023D
:1005F00008BF704730B511F0004502D5404261EBAD
:1006000041014FF4806404F132045FEA915C3FF4ED
:10061000D8AE4FF003025FEADC0C18BF03325FEA8A
:10062000DC0C18BF033202EBDC02C2F1200300FA3B
:1006300003FC20FA02F001FA03FE40EA0E0021FA60
:1006400002F11444BDE600BF70B54FF0FF0C4CF44E
:10065000E06C1CEA11541DBF1CEA135594EA0C0F00
:1006600095EA0C0F00F0DEF82C4481EA030621EA3B
:100670004C5123EA4C5350EA013518BF52EA033576
:1006800041F4801143F4801338D0A0FB02CE4FF028
:100690000005E1FB02E506F00042E0FB03E54FF058
:1006A0000006E1FB03569CF0000F18BF4EF0010E50
:1006B000A4F1FF04B6F5007F64F5407404D25FEA4C
:1006C0004E0E6D4146EB060642EAC62141EA5551FF
:1006D0004FEAC52040EA5E504FEACE2EB4F1FD0C41
:1006E00088BFBCF5E06F1ED8BEF1004F08BF5FEABF
:1006F000500E50F1000041EB045170BD06F0004671
:1007000046EA010140EA020081EA0301B4EB5C041D
:10071000C2BFD4EB0C0541EA045170BD41F4801115
:100720004FF0000E013C00F3AB8014F1360FDEBF3A
:10073000002001F0004170BDC4F10004203C35DA16
:100740000C341BDC04F11404C4F1200500FA05F399
:1007500020FA04F001FA05F240EA020001F000423A
:1007600021F0004110EBD37021FA04F642EB0601B0
:100770005EEA430E08BF20EAD37070BDC4F10C04DA
:10078000C4F1200500FA04F320FA05F001FA04F29E
:1007900040EA020001F0004110EBD37041F100018A
:1007A0005EEA430E08BF20EAD37070BDC4F1200595
:1007B00000FA05F24EEA020E20FA04F301FA05F2FD
:1007C00043EA020321FA04F001F0004121FA04F2A5
:1007D00020EA020000EBD3705EEA430E08BF20EA75
:1007E000D37070BD94F0000F0FD101F000464000AF
:1007F00041EB010111F4801F08BF013CF7D041EA31
:10080000060195F0000F18BF704703F00046520034
:1008100043EB030313F4801F08BF013DF7D043EA05
:100820000603704794EA0C0F0CEA135518BF95EABB
:100830000C0F0CD050EA410618BF52EA4306D1D142
:1008400081EA030101F000414FF0000070BD50EA61
:10085000410606BF1046194652EA430619D094EAEB
:100860000C0F02D150EA013613D195EA0C0F05D1D5
:1008700052EA03361CBF104619460AD181EA030129
:1008800001F0004141F0FE4141F470014FF00000E1
:1008900070BD41F0FE4141F4780170BD70B54FF07C
:1008A000FF0C4CF4E06C1CEA11541DBF1CEA1355FC
:1008B00094EA0C0F95EA0C0F00F0A7F8A4EB0504DE
:1008C00081EA030E52EA03354FEA013100F08880D5
:1008D0004FEA03334FF0805545EA131343EA12639E
:1008E0004FEA022245EA111545EA10654FEA002653
:1008F0000EF000419D4208BF964244F1FD0404F50C
:10090000407402D25B084FEA3202B61A65EB030567
:100910005B084FEA32024FF480104FF4002CB6EB24
:10092000020E75EB030E22BFB61A754640EA0C00A4
:100930005B084FEA3202B6EB020E75EB030E22BFE4
:10094000B61A754640EA5C005B084FEA3202B6EB25
:10095000020E75EB030E22BFB61A754640EA9C00E4
:100960005B084FEA3202B6EB020E75EB030E22BFB4
:10097000B61A754640EADC0055EA060E18D04FEA72
:10098000051545EA16754FEA06164FEAC30343EA12
:1009900052734FEAC2025FEA1C1CC0D111F4801FDF
:1009A0000BD141EA00014FF000004FF0004CB6E7D8
:1009B00011F4801F04BF01430020B4F1FD0C88BF77
:1009C000BCF5E06F3FF6AFAEB5EB030C04BFB6EB82
:1009D000020C5FEA500C50F1000041EB045170BD75
:1009E0000EF0004E4EEA113114EB5C04C2BFD4EBA2
:1009F0000C0541EA045170BD41F480114FF0000E26
:100A0000013C90E645EA060E8DE60CEA135594EAA1
:100A10000C0F08BF95EA0C0F3FF43BAF94EA0C0FA4
:100A20000AD150EA01347FF434AF95EA0C0F7FF419
:100A300025AF104619462CE795EA0C0F06D152EA6D
:100A400003353FF4FDAE1046194622E750EA410651
:100A500018BF52EA43067FF4C5AE50EA41047FF462
:100A60000DAF52EA43057FF4EBAE12E74FF0FF3CC7
:100A700006E000BF4FF0010C02E000BF4FF0010C98
:100A80004DF804CD4FEA410C7FEA6C5C4FEA430C11
:100A900018BF7FEA6C5C1BD001B050EA410C0CBF60
:100AA00052EA430C91EA030F02BF90EA020F0020C2
:100AB000704710F1000F91EA030F58BF994208BF29
:100AC00090422CBFD8176FEAE37040F001007047E6
:100AD0004FEA410C7FEA6C5C02D150EA013C07D13D
:100AE0004FEA430C7FEA6C5CD6D152EA033CD3D088
:100AF0005DF8040B704700BF8446104662468C4682
:100B00001946634600E000BF01B5FFF7B7FF0028B4
:100B100048BF10F1000F01BD4DF808EDFFF7F4FFDD
:100B20000CBF012000205DF808FB00BF4DF808ED68
:100B3000FFF7EAFF34BF012000205DF808FB00BF8B
:100B40004DF808EDFFF7E0FF94BF012000205DF8AD
:100B500008FB00BF4DF808EDFFF7CEFF94BF012062
:100B600000205DF808FB00BF4DF808EDFFF7C4FF5B
:100B700034BF012000205DF808FB00BF4FEA410CA4
:100B80007FEA6C5C02D150EA013C0AD14FEA430C87
:100B90007FEA6C5C02D152EA033C02D14FF00000C4
:100BA00070474FF0010070474FEA410212F5001202
:100BB00015D211D56FF47873B3EB625212D94FEAA4
:100BC000C12343F0004343EA505311F0004F23FA8E
:100BD00002F018BF404270474FF00000704750EAE3
:100BE000013005D111F0004008BF6FF000407047A0
:100BF0004FF00000704700BF4A0011D212F50012FA
:100C000011D20DD56FF47873B3EB62520ED44FEA64
:100C1000C12343F0004343EA505323FA02F07047E4
:100C20004FF00000704750EA013002D14FF0FF3022
:100C300070474FF0000070474FEA4102B2F1E043C5
:100C400024BFB3F5001CDCF1FE5C0DD901F0004CB3
:100C50004FEAC0024CEA5070B2F1004F40EB830003
:100C600008BF20F00100704711F0804F21D113F12F
:100C70003872BCBF01F00040704741F480114FEA68
:100C80005252C2F11802C2F1200C10FA0CF320FAF1
:100C900002F018BF40F001004FEAC1234FEAD3230E
:100CA00003FA0CFC40EA0C0023FA02F34FEA430378
:100CB000CCE77FEA625307D150EA01331EBF4FF001
:100CC000FE4040F44000704701F0004040F0FE401C
:100CD00040F40000704700BF53B94AB9002908BF6B
:100CE00000281CBF4FF0FF314FF0FF3000F0BEB9BD
:100CF000ADF1080C6DE904CE00F03CF8DDF804E03D
:100D0000DDE9022304B0704738B500220023044611
:100D10000D46FFF70BFF28B920462946BDE83840AD
:100D200000F00AB8204605F1004100F005F8404205
:100D300061EB410138BD00BFD0B50C4B0022064627
:100D40000F46FFF781FCFFF757FF0446FFF702FC51
:100D5000074B0022FFF778FC02460B463046394627
:100D6000FFF7BAFAFFF748FF2146D0BD0000F03D7B
:100D70000000F0412DE9F047089D8E460446884664
:100D8000002B4AD18A42174662D9B2FA82F64EB196
:100D9000C6F1200301FA06F820FA03F3B74043EA4C
:100DA0000808B4404FEA174E1FFA87FCB8FBFEF163
:100DB000230C0EFB118843EA084301FB0CF29A4214
:100DC00009D9FB1801F1FF3080F0EA809A4240F225
:100DD000E78002393B449A1AA3B2B2FBFEF00EFB45
:100DE000102243EA024300FB0CFC9C4509D9FB1886
:100DF00000F1FF3280F0D6809C4540F2D3803B4426
:100E0000023840EA0140A3EB0C0300211DB1F3407E
:100E10000022C5E90032BDE8F0878B4205D90DB14B
:100E2000C5E9000100210846F5E7B3FA83F100297E
:100E300046D1734502D3824200F20581841A6EEBDB
:100E4000030201209046002DE5D0C5E90048E2E705
:100E5000002A00F09080B2FA82F6002E40F0A480C2
:100E60008A1A030C4FEA174E80B2BCB20121B2FBC2
:100E7000FEFC0EFB1C2243EA024304FB0CF29A42E6
:100E800007D9FB180CF1FF3802D29A4200F2E08039
:100E9000C4469B1AB3FBFEF20EFB123340EA034337
:100EA00002FB04F49C4207D9FB1802F1FF3002D286
:100EB0009C4200F2CA8002461B1B42EA0C40A5E796
:100EC000C1F120068B4022FA06F71F430EFA01F407
:100ED00020FA06F32EFA06FE4FEA1749234300FADA
:100EE00001F81FFA87FCBEFBF9F01C0C09FB10EEA1
:100EF00044EA0E4400FB0CFEA64502FA01F209D9B1
:100F00003C1900F1FF3A80F09C80A64540F29980A0
:100F100002383C44A4EB0E041FFA83FEB4FBF9F341
:100F200009FB13444EEA044403FB0CFCA44508D916
:100F30003C1903F1FF3E80F08280A4457FD9023B3B
:100F40003C4443EA0040A4EB0C04A0FB02EC6445E3
:100F50007346E14662D35FD05DB1B8EB030264EB48
:100F6000090404FA06F622FA01F31E43CC40C5E94F
:100F7000006400214FE7B1FBF2FC010C41EA0E4195
:100F800080B240EA01423B4638463C46B846BE463F
:100F90002026B1FBF7F1A2EB080241EA0C4166E71B
:100FA000014618E710462CE7C6F120022EFA02F39C
:100FB000B740B14020FA02F24FEA174E0A43B3FBA2
:100FC000FEF8BCB20EFB1833110C41EA034108FBDA
:100FD00004F9B04089454FEA104380B23ED97918F0
:100FE00008F1FF3C01D289451FD8A1EB0901B1FBF3
:100FF000FEF909FB04F80EFB191192B242EA014214
:10100000424529D2BA1809F1FF31C4D24245C2D2B1
:10101000A9F102013A44BEE7F0459DD2BEEB0203BE
:101020006CEB070C0138E14696E7A7EB0909494448
:10103000A8F1020CB1FBFEF909FB04F8DBE77346EB
:101040007FE7504666E70846FDE63B44023A33E751
:10105000ACF1020C3B441CE749469CE7A1EB0901BB
:10106000C446B1FBFEF909FB04F8C4E7704700BFB2
:101070000D48854604F0A6FB0C480D490D4A002397
:1010800002E0D458C4500433C4188C42F9D30A4A3D
:101090000A4C002301E013600432A242FBD30BF0A0
:1010A0001FFC00F0EDFBFEE70080002000000020A8
:1010B000D406002074080108D4060020A4200020D3
:1010C000FEE7000070B50446C36C406998470023F2
:1010D000656DA4F8643084F86030606904F11C0127
:1010E0002B460422BDE87040184700BF10B40B78AF
:1010F0000A7991F802C01E4CDB0143EA02134A78D8
:1011000043EA0223CA7843EA8C3343EA4253DAB211
:1011100042F0050223F07041A25C82EA1122D2B2B1
:10112000A25C82EA1142D2B2A25C124C82EA116243
:10113000A25C43EA027343F00503036272B6836C58
:101140004BB162B690F8243013B9022380F82430F2
:101150005DF8044B704700F12001032380F8243030
:10116000816462B60422836D5DF8044B40691847C0
:10117000100001080000010830B44B0190F860C075
:1011800090F863401D4D43EA011343EA02330CF02B
:10119000010143EA811343EAC11304F00F0443EA57
:1011A0000423DAB2164C42F0060243F00601A25CB8
:1011B00082EA1322D2B2A25C82EA1342D2B2A25CC9
:1011C00082EA1363EB5C41EA0373036272B6836CD9
:1011D00043B162B690F8243013B9022380F824306A
:1011E00030BC704700F12001032380F82430816473
:1011F00062B60422836D406930BC184700000108C4
:10120000100001080A2A09D090F83630012B1DD9A8
:1012100090F83E30012B0DD90020704790F82E3009
:10122000012BF9D8836A012204330B6080F82E2049
:1012300001207047836B4FF0010C00F1380204333A
:1012400080F83EC002640B6001207047036B4FF0D2
:10125000010C00F13002043380F836C002640B60E8
:10126000F2E700BF844690F86400022801D0022013
:10127000704743EA021041F8040C9CF86C00012806
:1012800004D14FF6CA608852023292B20A2B05D1BD
:101290009CF8100048B300208CF8100051F8040CA2
:1012A00070B5344DC4B204322E5DC0F307247440CF
:1012B000A1F1040E2E5DC0F30744744092B22C5D80
:1012C000C0F303656C402C4D2C5D40EA047041F87E
:1012D000040C72B6DCF84810B9B162B6092B06D01E
:1012E0000A2B2AD07BB3002070BD01207047DCF8A8
:1012F000403019688E4514BF03200020DCF84410EC
:10130000A1B3022199719A8070BD092B29D00A2BB3
:101310004FF003030BBF8CF82E308CF824300CF107
:1013200028030CF12003CCF8483062B6DCF85830C2
:10133000DCF8140071469847D5E79CF82E30012B55
:1013400009D0032070BD9CF82430002BF9D1022372
:101350008CF82430C7E702238CF82E30ACF82C2010
:10136000C1E7DCF8403003219971DCE7CCF8443068
:10137000C7E700BF100001080000010810B590F891
:101380002430032B044613D0826C0021917190F815
:101390002E20022A13D0022B1DD100F12001836DD3
:1013A0008164042240699847032384F8243010BDE7
:1013B00090F82E300022022B80F824200BD104F16B
:1013C0002800A36DA064A28DA16A606998470323D9
:1013D00084F82E3010BD72B6636CCBB10322A364C7
:1013E0009A7119689A886069A36D984794F83630A5
:1013F000022B07D094F83E30022B03D00023636405
:1014000062B610BD626C630068339B1A6364F7E7D1
:10141000A364F5E72DE9F04790F86150C269002315
:1014200004460B809DB190F8645080F86130012D26
:101430004ED0022D12D0D5B9836E052B62D0062B6B
:1014400015D1C2F30F322946FFF796FE0FE090F850
:101450006230B3B900252846BDE8F087856E052DBA
:1014600000F0D980062D00F02581092D3ED0002501
:101470006069636D042204F11C0198472846BDE8A9
:10148000F08703EB03231B02C3F307228C488D4D27
:1014900082F0090243F00F01825C82EA1343DBB25F
:1014A000C35CEB5C41EA0373236272B6A36C002B4E
:1014B00000F0F48062B694F8243013B9022384F863
:1014C00024300022236D606984F862209847C1E7C8
:1014D000816E052964D00629C9D1C2F30F3229468D
:1014E000FFF74AFE022384F86430C0E790F86030CA
:1014F000B0F85C20A5690133012084F860302074C5
:101500000A80B5E794F81DC094F86D30007F94F818
:101510006C6094F86E7094F86F900CF03F0CC009FA
:10152000634528BF6346B0420146C2F3863828BFF0
:10153000314661F30705C2F3465AB845414663F3A5
:101540000F2528BF3946CA45D64661F3174528BF3F
:10155000CE466EF31F65B042E5661BD89C4519D890
:10156000B84517D8CA4515D894F87000C2F30212CE
:1015700090420FD14A1C0133D2B2DBB252014FEA82
:101580008E1E5B010121A281A4F80EE0A4F85E305A
:1015900084F8641004F16C012046FFF7A7FD66E7AC
:1015A000457F90F86CC0017F90F86D0094F86E60F4
:1015B00094F86FE005F03F05C909A84228BF284606
:1015C00061450F4628BF674667F30703C2F38637B6
:1015D000C2F34658B742B94660F30F2328BFB1465D
:1015E000F04569F31743C14628BFF14669F31F630D
:1015F0006145E3660BD8854209D8B74207D8F04564
:1016000005D894F87030C2F302129342C2D000237E
:1016100084F86430BEE794F81DC094F86D50007FE4
:1016200094F86CE094F86E6094F86F800CF03F0CC6
:10163000C009654528BF654670450746194628BF5D
:10164000774667F30701C2F38637C2F34659B742BC
:10165000BA4665F30F2128BFB246C1456AF3174168
:10166000CA4628BFC2466AF31F617045E16604F1AD
:101670006C010DD8AC450BD8B74209D8C14507D885
:1016800094F87030C2F302129B1AB3FA83F35B0929
:1016900084F864302046FFF729FDE8E604F12001D4
:1016A000032384F82430A16462B60422A36D606928
:1016B000984706E7C2F30F320121FFF75DFDD6E63A
:1016C000100001080000010810B590F865300446CC
:1016D00043B1012B00D010BD002280F8652080F8B6
:1016E000613010BDC1691F4ACBB2D35C83EA1123BC
:1016F000DBB2D35C83EA1143DBB2D35C83EA1163D0
:10170000D35C5BB9037F03F00F03062B836609D814
:10171000042B1FD9012384F8613010BD042380F805
:10172000623010BD092B15D1838B1B09A0F85C30EA
:10173000002BEFD0B0F85E209A420FD390F86C20C7
:101740008169406903EB4202636D9847012384F885
:10175000653010BD012384F8623010BD022380F88B
:10176000623010BD100001080146002280F865209B
:10177000436D406904221C31184700BF10B5094C65
:101780002268D36823F4C063D3600021204606F0AA
:1017900069FE0421204606F065FE034B01221A7003
:1017A00010BD00BF4C090020F006002038B50D49DF
:1017B0000D4C0E4A002511230D702046294606F0D7
:1017C00011FD0B4A10230421204606F00BFDD4E93D
:1017D000093122680748D862D368CD6243F4C063F8
:1017E000D36038BDF00600204C090020140700200B
:1017F000F40600207D170008014805F085BA00BFF7
:10180000380700200000000010B594B038220021F5
:1018100006A80BF00CF80020CDE90100CDE903008B
:10182000059005F0F5FC9FED147B02235522CDE9D0
:101830000F320324082206A88DED067BCDE90D3476
:10184000CDE91123139305F05DFD08B172B6FEE7F3
:10185000042103460F220DEB0100CDE90124CDE95F
:101860000333059305F0CCFF08B172B6FEE706F02E
:10187000F5F814B010BD00BF010000000000010029
:101880002DE9F04F0024ADB003F0CCFFFFF7BCFF13
:10189000CDE91F44AE4D2194EB6CAE48DFF8F492D5
:1018A00043F00403EB64EB6C03F004030593059B26
:1018B000EB6C43F02003EB64EB6C03F02003069326
:1018C000069BEB6C43F00103EB64EB6C03F001034C
:1018D0000793079BEB6C43F00203EB64EB6C03F0A4
:1018E000020308934FF48062089B1D924FF4041387
:1018F0001DA91E9305F056FAAB6C43F00403AB64CC
:10190000AB6C03F004030393039BAB6C43F0010344
:10191000AB64AB6C03F001032246214604930D2017
:10192000049B04F04DFF0D2004F086FF21463C226D
:101930001DA8CDE9114413940AF079FF2022214615
:1019400015A80AF074FF4FF40047C9E90144C9E93A
:101950000B44C9F81040A9F81C4089F8244089F8C4
:101960003840C9F83C4089F840404FF0A04201257A
:10197000042402264846C9E90554C9F80020C9F8DC
:101980000C70C9F8206003F089FF08B172B6FEE759
:10199000119011A9484604F0E3FD08B172B6FEE7C4
:1019A0006D4BADF898004FF0090BCDE92140CDE922
:1019B0001D3B8DF89A008DF8A4004FF07F084FF082
:1019C000840A80231DA94846CDE927A31F952596A3
:1019D000CDF8808004F0C6FA08B172B6FEE75F4A1F
:1019E00040F20F131DA94846CDE91D2304F0BAFAB1
:1019F00008B172B6FEE75A491A900622CDE91512CF
:101A0000484615A9CDE91748199404F03BF808B1E8
:101A100072B6FEE7534A0C2315A94846CDE91523B3
:101A200004F030F8014608B172B6FEE7DFF86891BD
:101A300001903C221DA80AF0FAFE01994A4AC9F811
:101A40000C704846C9E90111C9E90415C9F81840E4
:101A5000A9F81C10C9F8205089F8241089F838100A
:101A6000C9F83C1089F84010C9F8002003F016FFAF
:101A700008B172B6FEE73D4A22908023ADF8980087
:101A80008DF89A008DF8A4001DA94846CDE91EB531
:101A9000CDE920842596CDF89CA028931D9204F0D2
:101AA00061FA08B172B6FEE72B4B1D93484640F22F
:101AB0000F131DA91E9304F055FA034608B172B620
:101AC000FEE72B48C0E90333C0E905334360294BE7
:101AD00003604023836004F0A7FD08B172B6FEE7FF
:101AE0002548DFF8B89000234024C0E90093C0E9FE
:101AF0000333C0E90533846004F096FD034608B162
:101B000072B6FEE71D48C0E90134C0E90333C0E9FD
:101B100005331B4B036004F087FD08B172B6FEE786
:101B20001848194B036004F01FFE014608B172B655
:101B3000FEE7164D30221DA80AF079FE144B2B60EB
:101B4000284604F0B9FE024650B372B6FEE700BF65
:101B500000100240000800480800900C001060329D
:101B6000020030042000F0140001005000008CCB73
:101B70001C0B002000020140F80A0020D40A0020BB
:101B80000C020140AC0A0020000C0240980A002020
:101B900000100050AC0B0020400B0020040201405C
:101BA0000223CDE91F00ADF87800219024901DA9F3
:101BB0002846CDE922331D9304F094FE08B172B695
:101BC000FEE7284610221DA904F08CFE034608B14A
:101BD00072B6FEE783484FF40036C0E90134036172
:101BE00003758361C3624FF440457F4B0360C0E9D6
:101BF000096505F095FA034608B172B6FEE77B4821
:101C0000C0E90134036103758361C362784B0360EB
:101C1000C0E9096505F084FA034608B172B6FEE72B
:101C20007448C0E90965436003618361C3620125AB
:101C3000714B84600360057505F072FA044608B1C3
:101C400072B6FEE7CDE91100CDE91500CDE9170028
:101C5000CDE91900CDE90E000D9013901B900146BF
:101C600034221DA80AF0E3FD6448654B03604FF081
:101C7000200840F61133C0E902834FF480734561B8
:101C800044608461036106F0AFF908B172B6FEE703
:101C90000023702559480F930DA9CDE90D5307F086
:101CA0008DF808B172B6FEE7012413900223534861
:101CB00011AA2146CDE9113407F020F908B172B616
:101CC000FEE704264D48119611AA214607F016F9A1
:101CD00008B172B6FEE7102311AA484811932146B5
:101CE00007F00CF9024608B172B6FEE7CDE917001D
:101CF000CDE919001B904FF0600C4FF4B1633F48E1
:101D000015A9CDE915C306F073FF08B172B6FEE759
:101D10003A48324615A906F06BFF08B172B6FEE7E5
:101D20003648082215A906F063FF08B172B6FEE72F
:101D30004FF43163314815950C2215A9169306F01E
:101D400057FF08B172B6FEE70323239327934FF49E
:101D500000654FF48063CDE91D533F264FF4805357
:101D6000CDE920634FF40053CDE92400CDE92800EC
:101D70001F90229321484FF000731DA9269307F06E
:101D80006FF8044608B172B6FEE71C4803F01AFB70
:101D90001C48C0E90244C0E90644C0E908440461A3
:101DA0008462194C4FF46123C0E900430C23436162
:101DB00007F04AFC08B172B6FEE70021114807F0AF
:101DC00095FC014608B172B6FEE70E4807F0D0FC5C
:101DD00008B172B6FEE70B4807F06AFC0446A8B1EA
:101DE00072B6FEE75C0A002000030140200A0020D2
:101DF00004030140E4090020080301409809002081
:101E0000002C0140580800200044004001F054FA22
:101E1000CDE90D44CDE90F44CDE91544CDE9174492
:101E2000CDE91144CDE91344CDE90A447B4B199423
:101E30000C94DA6C7A4D7B4E42F00102DA64DB6C72
:101E40001F9403F001030993099B02274FF40043F9
:101E50004FF090404FF001081DA91D931E97209749
:101E6000CDF8848004F09EFF3823C5E901442C613D
:101E7000AC616D4C7360392363604FF080432B601D
:101E800028464FF6FF73EB6005F0FCFF08B172B611
:101E9000FEE74FF480530DA928460D9306F030FC61
:101EA00008B172B6FEE7284606F01EF908B172B610
:101EB000FEE7CDE91700502315A94FF00409284685
:101EC000CDE91593CDF8648006F0EAFC024608B12E
:101ED00072B6FEE7CDE91108CDE9130811A928462D
:101EE00006F04CFB08B172B6FEE74A4611A9284637
:101EF000CDE9117706F042FB08B172B6FEE70A9011
:101F00000C900AA9284606F059FF08B172B6FEE700
:101F1000464B2360444800234FF400574FF0800A9B
:101F20004FF480794FF48068C4E90233E361C4E977
:101F300004A92762C4F8188004F0C0FD034608B164
:101F400072B6FEE73A4A3748AC62A562C6E904A910
:101F5000C6E90233C6F8188037623260F36104F0D4
:101F6000ADFD044608B172B6FEE70122032126202A
:101F70006E62B56204F024FC262004F05DFC22466B
:101F800003210B2004F01CFC0B2004F055FC012263
:101F90000421182004F014FC182004F04DFC224603
:101FA0002146192004F00CFC192004F045FC2246BF
:101FB0000221122004F004FC122004F03DFC224611
:101FC0000321282004F0FCFB282004F035FC2246E5
:101FD00021460E2004F0F4FB0E2004F02DFC154DDC
:101FE00015488DF8544005F0CBFF0D4805F0C8FFAB
:101FF000FFF7DCFB0FCD1DAC0FC495E80F0007C445
:102000000E4823801D221DA94FF0FF3306F0CEFF9E
:102010004FF47A7003F030FCFEE700BF001002407E
:102020004C090020EC080020380700204400024042
:1020300030000240100101089809002058080020D3
:1020400072B6FEE7014B186800F0B4B8EC1E002031
:10205000014B186800F0C6B8EC1E0020014B186850
:1020600000F0A0B8EC1E002002207047704700BFAF
:10207000704700BF012303744182028480F8283036
:10208000704700BF4FF0020C40F2014380F810C0CF
:102090008182028403857047436810B5002283F86B
:1020A000242004460321006808F0D8FF032384F8A5
:1020B000293010BD436810B5012283F8242004465E
:1020C0000221006808F0CAFF022384F8293010BDFD
:1020D00038B543680125044683F824500068294632
:1020E00008F0BCFF84F8295038BD00BF838CB0F8DD
:1020F00026C00B4323EA020341EA0C018384C18416
:10210000704700BF90F82830012B00D0704710B501
:10211000037C013B0446042B2AD8DFE803F02D1989
:10212000110303004368012283F82420028CB0F9D4
:102130001210C06809F0A2FB022384F8283010BDF9
:102140004368012283F82420D0F816201A61F3E7AF
:102150004368002283F824200068042108F07EFFF1
:10216000228CB4F91410206808F07CFF0028E3D119
:10217000032384F8283010BD4368002283F824200C
:102180000068032108F06AFF228CB4F91210E0689D
:1021900009F074FB228CB4F91210206808F062FF79
:1021A000E4E700BF90F82300704700BFC08C704781
:1021B000808C704710B50446FFF7F4FF08B100208B
:1021C00010BD2046FFF7F2FF0028F8D12046FFF7A8
:1021D000EFFF0028F3D1012084F8220084F82800C2
:1021E00010BD00BF38B50546FFF7DCFF044618B147
:1021F000B0F10C0418BF01242846FFF7D7FF10B137
:102200000024204638BD2846FFF7D2FF0028F7D12A
:10221000002CF5D0052385F82230F2E710B50446EE
:10222000FFF7C0FF0B2801D0002010BD2046FFF7AC
:10223000BFFF0028F8D1022384F82230E084012077
:1022400010BD00BFC38C808C43EA0040704700BFC4
:1022500090F82900704700BF30B583B004460D46A2
:10226000FFF7F6FF02280BD003220123042022747B
:10227000C4F8165084F8283084F8290003B030BD23
:102280006368C4F816501D6184F8290003B030BD9E
:10229000037C022B13D0032B09D0012B17D1B0F9EB
:1022A0001230002BB4BF4FF0FF3001207047B0F95F
:1022B0001630002BB4BF4FF0FF3001207047B0F94B
:1022C0001430002BB4BF4FF0FF30012070470120C5
:1022D000704700BFB0F91200704700BFB0F914009A
:1022E000704700BF008C704703680022DA609A6173
:1022F000704700BF0368586908F048BE006808F0DE
:10230000A9BE00BF4368186883B26FF30F0082B0A4
:10231000184302B0704700BF4368586883B26FF338
:102320000F0082B0184302B0704700BF4368D868FE
:1023300083B26FF30F0082B0184302B0704700BF42
:102340004368186983B26FF30F0082B0184302B07C
:10235000704700BF4368D3F8160083B26FF30F00D5
:1023600082B0184302B070474368D3F81A0083B2B2
:102370006FF30F0082B0184302B070474368B3F99F
:102380001E00704710B5D0E9000408F0EDFEC0F360
:102390000F432082638210BDC0F30F4344F6E61161
:1023A0004BF21A6213FB01F310FB02F2A2EB4302A1
:1023B000B2F1804F84B003B205DAD11311F5004FAA
:1023C0000CDA094A01E047F6FF729BB2002063F382
:1023D0000F0093B263F31F4004B0704702480AB283
:1023E0008242B8BF0246F0E70180FFFF064B00F1D2
:1023F000FF404FF0601200F5FE0082B01A60586096
:10240000986802B0704700BF000C024030B5054626
:10241000044685B00846FFF7E9FF2DB201B2241447
:10242000001405FB01F304FB1033B3F1804F05DA10
:10243000DA1312F5004F22DA144A01E047F6FF7270
:1024400001FB04F405FB0044B4F1804F4FEAE43390
:1024500004DA13F5004F0CDA0C4B01E047F6FF737A
:1024600092B2002062F30F009BB263F31F4005B0ED
:1024700030BD06491BB28B42B8BF0B46F0E7034B99
:1024800012B29A42B8BF1A46DAE700BF0180FFFFD6
:1024900030B5054685B004460846FFF7A7FF24146B
:1024A00002142DB200B204FB02F305FB003300FB63
:1024B00004F405FB1244C3F3CF33002063F30F0091
:1024C000C4F3CF3464F31F4005B030BD002809DDEC
:1024D00072B6054B40F269121A6058609868C00BDA
:1024E00062B6704700207047000C024008B310B578
:1024F000104A114C02600023237000F025FA0F48A7
:10250000FEF7E0FD0E4807F07BFB0E4809F00EF9E0
:102510000D4802F0C9F90D4808F082FB0C4802F0A2
:10252000C3F90C4807F016FBFFF7A0FD0123237049
:1025300010BD704700000020540C002074040020DF
:102540004C030020E0030020A403002088030020A7
:10255000D0030020B4030020014B1880704700BF57
:10256000580C0020034B188880B2B0FA80F0400964
:10257000704700BF580C0020014B1880704700BF07
:10258000560C0020034B188880B2B0FA80F0400946
:10259000704700BF560C002008B5002000F048FC32
:1025A000064A0748136890F829100133136009B9E7
:1025B000002008BD07F052F9002008BD541F00207C
:1025C00038040020F8B50446A8B1224E306801F066
:1025D00091F80146204D04EB840304EB430305EB23
:1025E0008305CA43284692B2FFF780FD2846FFF7CD
:1025F00029FED8B9F8BD1948164E02F077FA0146FF
:10260000174807F0B9FA0746306801F073F8054635
:10261000144802F06BFA0146134808F02DFB0743FB
:1026200007F00E0745EA070189B2D3E756F8240000
:1026300001F014F80D4890F8293023B92046BDE880
:10264000F84000F033B907F0C7F92046BDE8F8407C
:1026500000F02CB9440C002000000020D003002022
:10266000B4030020A40300208803002038040020C5
:1026700008B5064B1B78012B00D008BD0020FFF7E2
:10268000A1FFBDE8084002F0F9BA00BF540C0020D9
:102690001E4B1B78CBB170B51D4C2388B3B1013BE9
:1026A0009BB21C4A238013889BB21BB11388013B49
:1026B0009BB21380184A13889BB21BB11388013B4D
:1026C0009BB21380FFF7D4FF70BD7047134D00F02D
:1026D000F3F9FFF7CDFC294651F80C0B83689847B6
:1026E000686030B129460A2251F8080B0368984700
:1026F00008B90123D5E7284600F016FD2868EA89C5
:102700004668A9680A23B047F3E700BF540C0020CD
:102710005A0C0020580C0020560C002064040020A5
:1027200008B5002000F0C2F8BDE8084002480022C9
:102730008021FFF7DBBC00BF0000002008B5FFF7D9
:102740008DFC18B9BDE80840FFF77CBCBDE8084027
:10275000FFF77EBCF0B44D4A4D494E48042592B077
:10276000D161D561D161D36911930226119BD061EA
:10277000D661D061D3691093109B4FF480444FF41D
:10278000A033D361D461D361D4690F944FF09043E7
:102790000F9C01274FF00114DC61DF61DC61D3F88D
:1027A0001CC0CDF838C0DDF838C0D461D761D46121
:1027B000D4690D940D9C384CDC618027DF61DC61AD
:1027C000DC690C940C9CD861DE61D861D8690B90EF
:1027D0000B9C3248D8610824DC61D861D8690A9022
:1027E0000A98D961DD61D961D969099140202C49E4
:1027F000099CD961D861D961D969089120202949FA
:10280000089CD961D861D961D8690790E0314FF44B
:102810008070079CD961D861D961D96906914FF45C
:1028200000704FF48131069CD961D861D961D969B2
:1028300005914FF480604FF48231059CD961D861D5
:10284000D961D96904914FF480504FF48831049CC8
:10285000D961D861D961DB6903934FF400414FF42A
:10286000C0330398D361D161D361D2690E4B029218
:102870004FF400514FF490320298DA61D961DA6175
:10288000DB690193019B12B0F0BC70470004004863
:1028900004000100020001008000010008000100A6
:1028A00040000100200001000008004838B504463F
:1028B00004EB84031E4804EB430300EB8300FFF7A3
:1028C000C7FC2622013804FB02F21A4BC0B20128D1
:1028D0004FF00001995003EB020C88BF1032CCF886
:1028E0000410CCF80C1088BF9950262101FB04334A
:1028F000114A002552F82400C3F81650C3F81A50A4
:10290000C3F81E50294607F08FF90C4B294653F89F
:10291000240007F089F90A4B53F8240008F092FBD1
:10292000084B53F82400BDE8384000F097BE00BFC4
:10293000000000201C0C002034000020300000208B
:1029400038000020440C0020F0B52D4D2D4E2E48AF
:102950002E4F2F4C85B0286007F044FD00F0CAFCD4
:10296000304607F04DF9384608F0F6FD20683A4643
:10297000314608F04FFB274F2A6800922168264B0A
:102980002648274E274D3A4608F036FA264807F0E3
:1029900037F9264807F034F9254B264A1B68394693
:1029A000DA609D60304607F011F9234A234816602B
:1029B000234A244E106008F08DF90020FFF776FFBF
:1029C0000123206885F8243008F0CEFBC0F30F42C5
:1029D000034620686A822B8208F0C6FBC0F30F43CF
:1029E0003046AB82FFF758FB206808F0B9FB0022A5
:1029F0000146304605B0BDE8F040FFF73BBB00BFE5
:102A0000440C00204C030020A40100207C00002086
:102A100038000020E0030020680000204802002069
:102A2000580000201C0C002020030020F40200208D
:102A30002C000020880300205C0C002040000020B7
:102A4000180C002000000020704700BF2DE9F04165
:102A5000044672B6154E262505FB0065B5F91080B3
:102A6000B5F9127062B6124804EB840304EB430319
:102A700000EB8300FFF7ECFB95F824301BB901381D
:102A8000C3B2012B09D872B6262303FB0466A6F84D
:102A90001080778262B6BDE8F081064B53F82400BF
:102AA00008F028FB8046E883EDE700BF1C0C0020FF
:102AB0000000002038000020F0B5BE4C83B0002399
:102AC0002046ADF80030FFF7C3FB69460546BA481B
:102AD00008F04AFCB94B0646186807F019F9204679
:102AE000FFF766FB20B10A2384F8233003B0F0BD62
:102AF0002046FFF75BFB78BB94F82330132BF5D807
:102B000001A252F823F000BF012D0008ED2A0008B1
:102B1000ED2A0008ED2A00086D2C0008ED2A0008B7
:102B20003D2C0008ED2A00081D2C0008ED2A0008A5
:102B3000592B00080D2C0008ED2A0008ED2A00088A
:102B4000ED2A0008ED2A0008BD2B0008852B00089F
:102B5000ED2A0008632B00080B2384F8233003B010
:102B6000F0BD94F82230052B00F0E880944808F07E
:102B7000CBF90246002840F0F0808E481021FFF784
:102B8000B5FAB3E794F822308E4D052B286800F093
:102B9000D780012100F066FD0028A7D094F82230EC
:102BA000032B00F036812868002107F07FFB1420FA
:102BB000FFF7D2FC102384F8233097E794F82230F3
:102BC000052B00F0BB80FFF7CDFC00288ED07D4E9A
:102BD000306807F0ABFA7C4B7C49012283F8242053
:102BE0007B4B186808F02CFA734808F08FFC002023
:102BF000FFF75CFE6B1EDBB2012B8CBF04230623A8
:102C0000306884F8233000F02BFD6FE794F8223011
:102C1000022B7FF46BAF0023638467E7FFF7B2FCFE
:102C200000283FF463AF6A4B6849186808F008FA57
:102C3000664808F06DFD0023638457E794F822305E
:102C4000052B7BD05B48FFF75DFA6B1EDBB2012BD7
:102C500040F2D6800020FFF7F9FE002E7FF446AF49
:102C6000544832462021FFF741FA3FE794F82230DA
:102C7000052B63D0524808F047F90246002840F07F
:102C8000AD804C481021FFF731FA50480DF1020198
:102C900008F0A2FD4A4808F06FF900283FF426AF7B
:102CA000454E0DF10201304608F090FC05464148C2
:102CB000FFF7EEFA41B2304608F026FD43482946B8
:102CC00008F018FE002D3FF411AF3F4FB6F9041085
:102CD0007868404DFFF79AFB0190286807F0FAFFEB
:102CE000B7F910102868002208F040F8BDF9041068
:102CF0002868192208F03AF8132384F82330F5E6FF
:102D000094F8223003F0FD03012B7FF4EFAE6B1E2D
:102D1000DBB2012B06D92748FFF7BAFA014628484B
:102D200008F0A6F8274D286890F87F1000295FD199
:102D300000F098FC112384F82330D7E6214B186863
:102D400007F0F4F90020FFF7B1FD4FF44870FFF7EA
:102D500013FC082384F82330C8E61C4801A908F0B6
:102D60003BFD0546194808F0D3FD15B900283FF48E
:102D7000BDAE154B1848B3F9105006F05FFF01B215
:102D800005FB01F1124D144806F04EFF0A49286870
:102D900008F056F90020FFF757FE0020FFF756FE17
:102DA000286808F0E7F90348FFF7ACF9062384F830
:102DB00023309BE6000000207C0000202C00002037
:102DC00048020020440C00201C0C0020E0030020DE
:102DD00038000020180C00204C030020104B18680D
:102DE00008F088F90F4BB3F9142018825A824CE787
:102DF0000121A0F8601000F035FC28680021D4E61D
:102E000001A9094808F0E8FC084B186806F0E6FE3E
:102E10006CE60020FFF74AFD0023638466E600BFEE
:102E2000380000201C0C0020E00300205C0C002077
:102E30002DE9F047DFF85081524C98F8233088B0E4
:102E40000546132BD4F81A00059000F08E804E48EA
:102E50004E4FFFF7FDF94E4B1B6881465B693868A2
:102E6000B3F90460036802A9984701F07FFF01F0FD
:102E700039FF0298FFF790FA31460390FFF7C6FA40
:102E8000B4F91030009001B2591A424B186806F09C
:102E9000FFFEBDF90230B4F91210C91A3E4B82464A
:102EA000186806F0F5FE1FFA8AF1B9F1010F41EA40
:102EB000004154D0394806F0A3FC31468146FFF763
:102EC000E7FA01463868049100F080FA014602985A
:102ED0002060039860600098E06001290498C4F8BD
:102EE00016902684C4F81A0031D02D482D4E08F0D3
:102EF00043F82D4A03466068D288069005A93046FB
:102F00001C46ADF81C2008F03DF9304608F0D2FA16
:102F10009CB198F82330132B0BD8244A22FA03F3E0
:102F2000DB0706D5B3882248ADF8103004A908F0B5
:102F300001FC284608B0BDE8F087214606F13400C0
:102F400006F072FE98F82330132BE6D9F1E70E480D
:102F50000022FFF7CBF8284608B0BDE8F087154BF4
:102F6000186806F037FE0146A4E7134E306807F0F4
:102F7000DBFE00287FF46BAF306807F0B3FE2082E1
:102F800065E700BF1C0C002000000020440C00205E
:102F90003800002034000020300000203C000020D9
:102FA000480200207C000020880300205000080018
:102FB000E00300205C0C0020180C00202DE9F04FED
:102FC00089B08568334B06934FF00008324B446854
:102FD000B0F90C20ADF816800646A0F80E806F18E8
:102FE000CDF80C800793C5F10109A2F1020A002A6D
:102FF0000FFA8AFE0DF116031FFA8AFA36DD34F84D
:1030000002CB0DF120082CF007000CF0070B1CF090
:10301000060F224680B20CF0380108EB8B0B2DD145
:103020005BF808BCCDF800E0D847BDF8161005EBFA
:103030000903DBB2AAEB0102012B12B20C4412D03D
:10304000BD4221D005F8010BF3890133F38100283B
:10305000CBD0072812D001230A280393C5D10398A7
:1030600009B0BDE8F08F002AEAD10390039B002B42
:10307000F5D10398F38109B0BDE8F08F01230393E4
:10308000039809B0BDE8F08F08230393039809B0B3
:10309000BDE8F08F2D3700082D3800082DE9F047E6
:1030A00086B00023ADF80E30C381B0F80C801C4B05
:1030B00004931C4BD0F8049086680593B8F1000F78
:1030C00029D007460CB24D4612E05EF808AC0094D9
:1030D000D047A8EB050319FA83F39BB2E0B9BDF81A
:1030E0000E10FA89641A0A440E44FA8124B29BB184
:1030F00035F802CB0DF1180A2CF007000CF0070E82
:103100001CF0060F0DF10E03324680B20CF03801B0
:103110000AEB8E0ED9D0012006B0BDE8F08700BFC3
:10312000353E0008693F0008F0B50446466822684D
:1031300036F8023B8089928903F47F45013A0238D0
:1031400023F0070CB5F5807F91B283B080B21FFAEF
:103150008CFC12B23CD0013B03F00703544DA0811C
:1031600003EB830703EB470305EB8307BCF1380F41
:103170004FF000056660E58135D8BCF1380F1ED8E8
:10318000DFE80CF06C1D1D1D1D1D1D1D741D1D1D7A
:103190001D1D1D1D591D1D1D1D1D1D1D4B1D1D1DF5
:1031A0001D1D1D1D531D1D1D1D1D1D1D5E1D1D1DD8
:1031B0001D1D1D1D471D1D1D1D1D1D1D6600002300
:1031C0000220A268D054E3890133E38103B0F0BD4B
:1031D000CCF3C40C0023BCF1010FA0816660E38135
:1031E00051D90D20EDE7BCF1680F09D043D8BCF1EF
:1031F000480FE4D13846FFF7C5F8E3892846E0E7F1
:10320000A3680093314604F10E03FEF72DFFE38916
:10321000D7E73846FEF7C6FF38B93846FEF7CAFF8B
:1032200080F00100E389C0B2CBE73846FEF7DAFF51
:10323000E3890020C5E72046FFF730FFE389C0E7B8
:103240003846FEF7AFFF062829D0E3890020B8E70B
:103250003846FEF7E3FFE3890020B2E7A3680421C4
:103260000122E1811A70E3890020AAE72046FFF7D6
:10327000A5FEE389A5E7BCF1780FA0D103F0EAFA37
:10328000E38928469DE70B4B53F82C506DB1A3689A
:103290000093314604F10E03A847E38991E73846CD
:1032A000FFF722F8E38900208BE72B4699E700BF60
:1032B00000000020600C002008B504F0A5FB0A4BBC
:1032C000A3FB0030C00903F0D7FA084B00221968AD
:1032D0004FF0FF3003F074FA0548FFF707F9BDE837
:1032E0000840FFF737BA00BFD34D62100805002031
:1032F000EC1E00202249234A8B6810B423F44013AB
:1033000023F0700343F0100383B08B608B6823F4C9
:10331000803323F0070343F006038B60936DDB07D4
:1033200016D4936D43F001039365936D4FF0804184
:1033300003F001030193019B4B6943F001034B61CF
:10334000936D23F00103936503B05DF8044B704760
:103350004FF080430C485A6859680C4C014041F0CA
:1033600020015960596941F00101596159682240B1
:1033700001400A435A6003B05DF8044B704700BF38
:10338000002C0140001002408FFFFFFD7000000282
:10339000013270B552086FF0020655010661002235
:1033A00093F800C0BCF10F0F02F1010E0CD80469B4
:1033B000A407F5D51FFA8EF295420661F0D81C7865
:1033C0000F2CEDD801230B8070BD00BF30B5B0F8D5
:1033D0007040B0F84E204FEA214C0BB204FB0CFCBD
:1033E000CCEBCC7C02FB03F303EB4C02C3EB4C03B2
:1033F00002EBD27E03EBD371551C83B04FEA9404E9
:103400004FEA4C0C4FEA6E0E4FEA61016BDB5D1C1C
:103410003DDBBEEB010E44BF0EF57F3E0EF2FF3EDC
:10342000002BBCBF03F57F3303F2FF33002AB8BF84
:1034300002F57F3290F8851004EBAE4E4FF0010597
:10344000B8BF02F2FF3280F87A500EEBA343AEEB26
:10345000A24200296ED11FFA83FC1FFA8EF491B2AA
:10346000A0F85C104169A0F858C02EEAEE7E23EA6D
:10347000E37322EAE272A0F85A40A0F850E0A0F804
:103480005230A0F8542003B0BDE830400847BCF1EA
:10349000000F7BDD002BB8BF03F57F33ACEB0101E0
:1034A000B8BF03F2FF33BCF1000F04EBA14EB8BF6D
:1034B0000CF5FF3C90F87D104FF000020EEBA3439B
:1034C000B8BF0CF2FF1C80F87A20A3EB6C420029F5
:1034D00040F0AE8090F88540002C00F0B9804FF0AD
:1034E000020C0124BCE7B3F1FF3F90F8855070DB7C
:1034F000BCF1000F23DDBEEB0C0E44BF0EF57F3E8A
:103500000EF2FF3E002AB8BF02F57F3204EBAE4E4A
:10351000B8BF02F2FF320223AEEBA24280F87A304B
:1035200002EB6C43002D7ED11FFA83FC94B21FFA8C
:103530008EF195E74FF0020C0024012190E7BCEBDF
:10354000010144BF01F57F3101F2FF31002BB8BF0B
:1035500003F57F334FF00302B8BF03F2FF3380F867
:103560007A20BCF10002B8BF02F5FF3204EBA14E95
:103570000EEBA343B8BF02F2FF12A3EB6242002D91
:1035800060D04FF0000C0124022169E7002AB8BF87
:1035900002F57F324FF00503B8BF02F2FF32AEEB07
:1035A0000C0E80F87A30BCF10003B8BF03F5FF338E
:1035B00004EBAE4E90F88510AEEBA242B8BF03F21A
:1035C000FF1302EB6343C1B34FF0010C022400214F
:1035D00046E7BEEB010E44BF0EF57F3E0EF2FF3E06
:1035E000002BBCBF03F57F3303F2FF33002AB8BFC3
:1035F00002F57F3204EBAE4E4FF0040CB8BF02F27E
:10360000FF3280F87AC00EEBA343AEEBA2422DB995
:103610001FFA82FC1FFA8EF499B221E74FF0010CD9
:10362000002402211CE74FF0000C0224012117E7BF
:103630004FF0020C0124002112E71FFA8EFC94B215
:1036400099B20DE71FFA82FC9CB21FFA8EF107E7D0
:103650001FFA8EFC9CB291B202E700BF4368184784
:103660008368184710B5044679B1012901D00020BC
:1036700010BDB0F860306BB1013B9BB2A0F8603078
:10368000002BF4D1C368984704E0FFF7E7FFE36835
:1036900020469847012010BD90F883301BB990F860
:1036A0007B30022B04D0012380F8803078307047C3
:1036B000D0E90F2110B4436CB0F848409462B0F8E0
:1036C0004A40B0F84C208C629A62012380F8803026
:1036D0005DF8044B783070474A6C03464FF0010C9C
:1036E00042F480624A64783083F881C083F883C0F2
:1036F000704700BF034690F88100A8B1002283F80C
:1037000081204221022093F880201AB1002283F800
:103710008020084693F882202AB140F4806000227D
:1037200080B283F8822070474021ECE710B408395A
:10373000BDF904C0202912D8DFE801F017111111DA
:103740001111111121111111111111112F1111113B
:103750001111111139111111111111114D00002206
:103760001A8007205DF8044B704748284FF001028B
:1037700014BF052004205DF8044B1A807047B0F593
:10378000656F39D042D9B0F5696F35D041F65832FE
:10379000904214BF052004202FE018284FF00402A7
:1037A00014BF052010465DF8044B1A8070470121B4
:1037B000198092F9000028B31FFA8CF003E01980F9
:1037C00012F9014FF4B101F1010C81421FFA8CF1A1
:1037D000F5D30420C6E71288023292B21FFA8CFC9D
:1037E00062451A801AD8A828F3D01BD820F04000D0
:1037F0002828EED00520B5E7002002225DF8044B12
:103800001A807047002313700420ABE720F04000BB
:10381000B0F5B26F14BF05200420EEE700221A8035
:103820000A209FE7E828E5D1D3E700BF30B583B091
:103830000839BDF918E094461C46202912D8DFE863
:1038400001F0161111111111111123111111111182
:1038500011115A11111111111111481111111111D8
:103860001111670000232380072003B030BD882892
:1038700000F0968020F0800048280CBF042005202E
:103880000123238003B030BDB0F5196F158800F017
:103890005A8260D8B0F5347F00F0508200F2A680E2
:1038A000B0F5C87F00F0198200F20781D02800F03F
:1038B0001E82B0F5887F00F01582902840F0548277
:1038C000B54829B206F0A4F900200223238003B0F2
:1038D00030BD012222809CF90030002B36D01FFA27
:1038E0008EF303E022801CF9011F79B3511C93422F
:1038F0008AB2F7D82DE098286AD061D820F040002D
:10390000182814BF052004200423238003B030BDF1
:1039100011888A1C92B21FFA8EF39A4222803BD8F9
:10392000B0F50A7F00F0E18000F2AC80B0F5D47F02
:1039300000F08E8000F2B580A8280AD000F29B81AA
:1039400020F04000282804D005208EE700238CF8C2
:103950000030042089E741F29053984200F0FF8143
:103960005BD841F29043984200F0938140F222816B
:1039700041F21053984200F0C48141F250539842F2
:1039800000F0BA8141F2D043984240F0ED81824884
:10399000294606F077F997E7002323800A2064E799
:1039A0001378042B65D0032B00F04881022B00F024
:1039B0004181012B02D17948FEF78AFB00205FE7A5
:1039C000D82854D0B0F58C7F14BF052004209BE785
:1039D000B2F900307249714881FB0321A1EBE37118
:1039E000002209B2FEF746FB00208DE7B0F58A6F92
:1039F00000F0548100F2FF80B0F5547F00F0608148
:103A0000B0F5647F00F04F81B0F5447F40F0AC81A9
:103A1000644829B206F02EF956E741F6D0039842E1
:103A200000F07E8100F2F58041F21063984200F0D0
:103A30002B8141F25063984200F0218141F2D05332
:103A4000984240F091815848294606F0F1F83BE74A
:103A5000DCF80210524BBCF8062083FB0103A3EBF9
:103A6000E1714E4809B2FEF705FB0020FDE6042097
:103A70004AE74A48FEF782FC002201464748FEF723
:103A800001FB9BE7B0F55A7F28D0B0F5A56F7FF416
:103A90005BAF46480CF1020103B0BDE8304005F0D1
:103AA000C9BFB0F5F47F7FF44FAFBCF80620BCF976
:103AB00002103A48FEF7E6FAD7E7B0F5047F00F0C7
:103AC0002A81B0F5247F00F02181B0F5E87F40F035
:103AD0004B81354829B206F09DF8F5E6DCF8021076
:103AE0002E480191FEF7B8FBBFE74B077FF456AFB6
:103AF000C9B22F293FF652AFC908B6D0BCF902307F
:103B0000274ABCF8085082FB0340A0EBE370284B27
:103B1000BCF906401C8201299D81D881A5D0BCF941
:103B20000A40BCF90E5082FB04E0A0EBE4700229CD
:103B3000BCF810401C839D83588396D0BCF912407A
:103B4000BCF9165082FB04E0A0EBE4700329BCF83A
:103B500018409C841D85D88487D0BCF91A40BCF9D4
:103B60001E5082FB04E0A0EBE4700529BCF8204065
:103B70001C869D8658867FF478AFBCF92210BCF96C
:103B8000260082FB0142A2EBE172BCF828409C8730
:103B9000A3F84000DA8768E74C030020000000200B
:103BA000ABAAAA2AF4020020200300203804002037
:103BB00048020020B0F5696F3FF486AE52D8B0F5E8
:103BC000656F3FF481AE00F2CF80B0F5396F00F041
:103BD000CD8000F2E880B0F5256F00F0C78000F2DC
:103BE000FD80B0F51D6F00F0C180B0F5216F14BFEE
:103BF0000520042069E6B0F5016F00F0B78021D8F8
:103C0000B0F5926F40F0B480824829B206F000F817
:103C10005AE641F6D023984200F0878000F2D78020
:103C200041F61013984240F0CB807A48294605F0BF
:103C3000FFFF49E67848FEF73DFABFE67648FEF713
:103C40002BFABBE6B0F5156F40F09F807248FEF787
:103C500077FB03460193ADF804506F480199FEF7D6
:103C6000FBFA31E641F2504398427DD16B48294638
:103C700005F0DEFF28E6E8283FF46BAE64E668480E
:103C8000294605F0FFFF1FE66548294605F0DEFFDF
:103C90001AE66248294605F0D9FF15E65D4829B2C3
:103CA00005F0B8FF10E601AA0DF102015D4807F02A
:103CB00009FD5C48BDF902102AB207F00BFD03E6CE
:103CC00001AA0DF10201574807F0FCFC5548BDF967
:103CD000042029B207F0FEFCF6E5514829B205F0B0
:103CE00097FFF1E54D4829B205F0C4FFECE54B48DC
:103CF00029B205F08FFFE7E54B48294605F0A6FFFE
:103D0000E2E54948294605F093FFDDE5464829B23A
:103D100005F07EFFD8E5424829B205F0ABFFD3E5B8
:103D20003C48294605F092FFCEE5404A4049C5EBA4
:103D3000C533A2FB03235B090B81C5E53A4829B2D1
:103D400005F068FFC0E53448FEF7FAFA0346019330
:103D5000ADF8065030480199FEF77EFAB4E53248D6
:103D6000294605F08FFFAFE50520AEE50420ACE560
:103D7000FAD3B0F5F26FF9D045D820F04000B0F595
:103D8000B26F14BF052004209FE5EDD8B0F50D6F8C
:103D9000ECD02CD8B0F5056FE8D0B0F5096F14BFA2
:103DA0000520042091E5B0F5456FDFD025D8B0F5AA
:103DB0003D6FDBD0B0F5416F14BF0520042084E5D2
:103DC00041F69023984214BF052004207DE541F67A
:103DD0005833984214BF0520042076E5B0F5296FCA
:103DE000C4D0B0F5356F14BF052004206DE5B0F5E3
:103DF000116F14BF0520042067E5B0F5496F14BFAB
:103E00000520042061E5B0F5FA6F14BF05200420F9
:103E10005BE500BFB0000020000000204C03002044
:103E2000200300207C000020F40200201F85EB51BD
:103E30005800002010B5A1F1080CBDF908E0BCF154
:103E4000200F12D8DFE80CF01B1111111111111104
:103E5000271111111111111122111111111111112B
:103E600035111111111111111300072010BD28284F
:103E700029D012880232052092B21A8010BDBEF1FC
:103E8000000F1EDD01221A80052010BDBEF1030FB8
:103E900015DD0422F7E7BEF1010F10DDB0F5656F07
:103EA0005AD0B0F5696F14BF0520002002221A8095
:103EB00010BD20282CD060280FD00022E3E7082076
:103EC00010BD084610BD1FFA8EFE0A21BEF10B0F71
:103ED000118035D80C220820CFE7204C94F900003F
:103EE0000121198080B11FFA8EFEA44608E002F875
:103EF000010B1988013189B219801CF9010F18B121
:103F00007145F4D3062010BD00231370002010BDAE
:103F1000134C94F90000012119800028F4D01FFAF5
:103F20008EFEA44609E002F8010B1988013189B21E
:103F300019801CF9010F0028E6D08E45F3D8E1E77F
:103F4000084948680C680989C2F80600C2F80240AE
:103F5000518100200C2290E70020A7E7BC01010856
:103F6000980101088C01010830B595B01D46A1F1FA
:103F70000803BDF960C01446202B12D8DFE803F017
:103F800031111111111111116A11111111111111A8
:103F9000471111111111111161111111111111118B
:103FA0001400072015B030BDB0F5D47F00F0D481E7
:103FB0007ED8E82804F1020300F0EA8100F22181B2
:103FC000682800F0DA81A82840F0AE811FFA8CFC46
:103FD0001022BCF1110F228000F24B821223082024
:103FE00082E0BCF1000F40F37481882800F09881D2
:103FF000C82800F09181482840F0CD80B648FEF7EF
:10400000D1F82070002001232B8015B030BDBCF109
:10401000030F4ADDD82800F0C58100F26D815828D1
:1040200000F04F81982800F0C481182840F0BF812B
:10403000A948FEF707F92060002004232B8015B063
:1040400030BDA02800F08F80E0286FD000232B80A7
:104050000520A7E7BCF1010F27DDB0F51D6F00F0CB
:104060002E8344D8B0F58A6F00F0248340F2958007
:10407000B0F5056F00F0288300F2BB81B0F5BA6F90
:1040800000F0A38200F26082B0F5926F00F04583E9
:10409000B0F5B26F40F03D82904805F0ABFB208058
:1040A000002002232B8015B030BD082015B030BD94
:1040B000B0F50A7F00F0BD80B0F55A7F00F039817D
:1040C000B0F5F47F40F03081042323808248FEF76E
:1040D00005F9034663808048FEF704F92388024609
:1040E00002330020A2809BB22B8015B030BD41F27C
:1040F0009043984200F0D28266D8B0F53D6F00F050
:10410000118300F26381B0F5296F00F0FF8200F2A5
:10411000E681B0F5216F00F0C682B0F5256F40F062
:10412000F8816D48FEF720F92080B9E76C4B1A68DA
:1041300001232B8002F1240192F924207AB11FFA85
:104140008CFC08E004F8012B2B8801339BB22B80F8
:1041500011F9012F1AB19C45F4D8062022E700235B
:10416000237000201EE75F4A012311682B8091F91C
:104170000020002AF3D01FFA8CFC09E004F8012B80
:104180002B8801339BB22B8011F9012F002AE6D036
:104190009C45F3D8E1E7052035E7B0F5047F00F052
:1041A000618200F23981B0F5887F00F03D8200F233
:1041B000C081902800F0A082D02840F0AA814A480F
:1041C00005F02EFD20806BE741F21063984200F06D
:1041D000358200F2338141F25053984200F01F8241
:1041E00000F2998141F2D043984200F08A8241F274
:1041F0001053984240F08D813C4805F017FD208017
:104200004EE7B0F5947F40F08F801FFA8CFC0C22B3
:10421000BCF10D0F228040F22981354A50681468A4
:104220009168D268DA6058601C60996000200E23A3
:104230005AE71FFA8CFC2823BCF1290F238040F297
:1042400012812C4BB3F90E20B3F91000998921810A
:1042500002EB4202E0805200B3F91C00C4F80220D5
:10426000B3F91A20198B218202EB4202E08152003D
:10427000B3F92800C4F80A20B3F92620998C2183C9
:1042800002EB4202E0825200B3F93400C4F812207B
:10429000B3F93220198E218402EB4202E0835200EE
:1042A000B3F94000C4F81A20B3F93E20998F218554
:1042B00002EB42025200E084C4F822202A230020AC
:1042C00012E70548FEF716F800EB400040002060BA
:1042D000B2E6084666E600BF000000208803002022
:1042E0001C040020240400204C030020F4020020C1
:1042F0002804002048020020B0F58C7F61D041F6F0
:104300005833984253D1B64B186805F01DFD8DED1A
:10431000010A019B23608FE6B24B93F8480070E6D8
:10432000B148FDF795FF6CE62388023305209BB268
:10433000DAE604232380AC48FEF702F803466380E4
:10434000A9481293FDF7FCFF2388C0F30F40023306
:10435000A0809BB20020C7E6A348FDF7BBFF00EB9F
:1043600040004300C4F802309F48FDF7BBFF06231E
:10437000E080238000200823B6E61FFA8CFC3C2254
:10438000BCF13D0F228000F28E803E230820ABE678
:104390001FFA8CFC0E22BCF10F0F228076D810235E
:1043A0000820A1E6914BD3F80031236044E60520B4
:1043B00043E68D48FDF7A2FF00EB4000400020607F
:1043C0003AE68A4BD3F8FC30236035E6B0F5496F06
:1043D00000F0868100F28F80B0F5416F00F07981A6
:1043E000B0F5456F40F09580804807F055F9208082
:1043F00056E6B0F5116F00F0418100F2C380B0F5D0
:10440000096F00F03481B0F50D6F40F0828076487E
:10441000FDF78CFF208043E6B0F5447F00F0188163
:1044200000F2A080B0F5247F00F00D81B0F5347F5C
:104430006FD16F4805F0F4FB208031E641F6101390
:10444000984200F0798100F2AB8041F250639842CB
:1044500000F06D8141F6D00398425AD1654805F0CD
:10446000EFFB20801CE62A2308203DE60E230820CF
:104470003AE6614A1268506814689168D268DA6056
:1044800058601C609960002012232DE65B4A126878
:104490001068516894689C601860596092899A818C
:1044A0000020102320E6564A126802F1300E1468EC
:1044B00050689168D2F80CC0C3F80CC01032724535
:1044C0001C605860996003F11003F0D110685168C6
:1044D00092689A601860596000203E2304E6B0F5A7
:1044E000356F00F00481B0F5396F12D13F4806F006
:1044F00087FD2080D4E541F25043984200F08A8045
:1045000007D8B0F5656F3FF4CBADB0F5696F3FF4F8
:10451000C7AD0520C5E541F29053984200F089806F
:1045200041F2D0539842F4D1364805F07FFB208009
:10453000B6E5B0F5C87F4DD0B0F5E87FE9D1314898
:1045400005F06EFB2080ABE5B0F5FA6F00F08580DA
:10455000B0F5016FDDD12448FDF7D4FEC0F30F4361
:1045600023809DE5B0F5547F00F08F80B0F5647F27
:10457000CFD11E4813AA12A907F0A4F8BDF84C30F9
:1045800023808DE5B0F5156F00F0DB80B0F5196F75
:10459000BFD11548FDF7D4FEC0F30F4323807FE55C
:1045A00041F6D0239842B4D1174B184AB3F90830DA
:1045B00003EB830303EB83039B0082FB03121A4488
:1045C000DB17C3EBA23323806AE5114805F0ECFA50
:1045D000208065E50B4805F01FFB208060E500BFEB
:1045E0002C00002048020020000000207C00002059
:1045F000F4020020B0000020180400202004002055
:104600001C0400202003002058000020030001802B
:10461000B40300204D4805F009FB208040E54C48DC
:1046200005F00EFB20803BE5484805F025FB208087
:1046300036E5474805F024FB208031E5454805F084
:10464000FFFA20802CE5424805F0E6FA208027E5B5
:104650003F4805F011FB208022E53F48FDF752FE60
:1046600020801DE53B4805F007FB208018E53A480F
:10467000FDF752FEC0F30F43238011E53648FDF7E6
:1046800055FEC0F30F4323800AE5344813AA12A94C
:1046900007F018F8BDF84830238001E52B4805F0F5
:1046A000CFFA2080FCE42C48FDF754FEC0F30F4302
:1046B0002380F5E42A4805F0B3FA2080F0E4264888
:1046C000FDF748FE2080EBE42348FDF725FE20801F
:1046D000E6E4224806F0E4FFC0F30F432380DFE462
:1046E0001E4806F0D9FFC0F30F432380D8E41B4BCC
:1046F000B3F904302380D3E4144805F08DFA208008
:10470000CEE4124805F0BCFA2080C9E41248FDF757
:104710002BFEC0F30F432380C2E4114805F07CFA5E
:104720002080BDE40D4806F0BBFF2080B8E40948B6
:1047300005F0A6FA2080B3E4094805F077FA208056
:10474000AEE40548FDF7FCFD2080A9E44C03002001
:10475000F402002020030020000000207C00002044
:10476000B000002000F038000838C0B210289ABF0E
:10477000014B185C00207047DC02010800F0380390
:10478000102B03D0424B05200B60704720F0070030
:10479000B0F51D6F82B268D012D8B2F50D6F5FD040
:1047A00020D8B2F5056F65D04DD8B2F5FA6F3BD081
:1047B000B2F5016FE6D1374B5B6800200233E3E7C7
:1047C000B2F5356F34D01BD8B2F5256F43D0B2F5B2
:1047D000296F24D0B2F5216FD4D12E4B5B68002015
:1047E0001833D1E7B2F5156F4CD0B2F5196F22D05E
:1047F000B2F5116FC6D1274B5B6800200E33C3E7BB
:10480000B2F5456F3BD0B2F5496F19D02248204B25
:10481000B2F5396F0ABF034605200020B4E71D4BEF
:104820005B6800201C33AFE71A4B00205B68ABE7E6
:104830001A4B0020A8E7174B5B6800201233A3E750
:10484000174B0020A0E7B2F5096F9BD1114B5B68B5
:104850000020063398E70F4B5B6800201A3393E77C
:104860000C4B5B6800200C338EE70A4B5B68002022
:10487000163389E7074B5B680020043384E7094B54
:10488000002081E7034B5B68002010337CE700BF0A
:10489000F01E002000000020880000208000002082
:1048A000EE000020EC00002070B58C4C2268002A3D
:1048B00033D090F804C0137963451ED06168002995
:1048C00000F0D3800B79634536D0A568002D00F049
:1048D000AD80FF222B79634500F0B880E568002D9C
:1048E00000F0BC802B79634500F0CE80032A98BF8E
:1048F000036836D9FF22027370BD036812689342C1
:1049000031D06168002900F0DA800A79624500F050
:10491000CB80A568002DDCD189E06168002900F01A
:10492000A88090F804C00B79634506D0A568002DD7
:10493000D0D103682A460BE0FF2203680968994238
:1049400000F0A880A568002DC4D1042A6FD82A469B
:10495000E16831B10D79654503D10968994200F0EC
:104960008180114601E0002211465D4D44F821008E
:104970000024A64645F831409C6862F3070EE6071E
:1049800062F30F2E22D45C6824F004045C600424DB
:104990001C605C6824F020045C6020241C609C681F
:1049A00024F0404424F03F0444F000449C609C68A0
:1049B000002CFCDB1C68E50708D44A4D9C682C40A1
:1049C00044F001049C601C68E407F7D5464D01EBF8
:1049D00041014C002E1D012126F804E04FF0000E8D
:1049E00005F804E01C6B01FA0CF124F00F04BCF193
:1049F000090F1C6341EA8C610CEB4C041FD841EA9F
:104A00000451CD0D05F00405143386685C59C1F3DB
:104A100004514FF0070E06FA01FC0EFA01F124EAE8
:104A2000010141EA0C015951027370BD0368E2684B
:104A300012B1117961453ED00222114695E71E3C24
:104A400041EA045141F00071DBE70A460368296836
:104A500099427FF443AF0222114686E7042A036895
:104A60007FF67FAF032211467FE7A568CDB1012213
:104A700030E7A568D5B190F804C02B796345E4D040
:104A8000E56855B10A462DE72968036899427FF425
:104A90002DAFE7E70122114667E72A460368114672
:104AA00063E70368012253E7FF2247E790F804C059
:104AB00003682A464CE712689A42D3D0BCE7A5683F
:104AC000002DEFD02A79624506D0E5680122002D3D
:104AD0007FF408AF114648E70122B8E7381F0020ED
:104AE000181F0020C0FFFF7F001F002030B5037B90
:104AF0005E4A03EB43014FEA430C12F81100002811
:104B000038D1117891B904209179002975D1117BA0
:104B1000002977D1917C002900F09A80D17D9942BB
:104B200040F2A0804FF0030E704603E051798B42B3
:104B3000EAD286460CEB030402EB440400EB40008F
:104B4000617101EB410184F804E002EB4101484C42
:104B50000B7102EB4000217843710CEB030001253F
:104B600001EB410122F8105002EB41014978A942C2
:104B700018BF23703F4991F8A010002938D13E4951
:104B800051F823100C7908680121092C04EB440525
:104B900001FA04F141EA846184BF1E3D41EA0551F6
:104BA000046B94BF41EA055141F00071090D01F415
:104BB000F86124F4F86421430163016C816821F0F9
:104BC000004121F03F0141F0040181600168490783
:104BD000FCD50CEB030102EB4101006C244D91F874
:104BE00005E085F800E020F00F00022448804C70BA
:104BF0009C4402EB4C02508830BDD17A8B421DD3CD
:104C0000117BF9B1517C994228D8917C002985D13A
:104C10000221084600EB40000CEB030402EB4404C5
:104C200002EB400021714179617101EB410102EB1E
:104C300041010F4C0B71437121788EE74FF0010E4B
:104C4000704677E7917C00297FF468AF0121E0E7A7
:104C50000028DED0064C194623707EE74FF0020E86
:104C6000704667E703200146D4E700BF001F00201D
:104C7000FC1E0020A4010020381F0020144B2DE949
:104C8000F0411C6824B1134D267B2B78012B01D0F9
:104C9000BDE8F0812046FFF729FF0F4B18800F4B2E
:104CA00006EB460203EB420301465B780BB102239D
:104CB0002B700B4B53F83670002FE9D003EBC60373
:104CC00020465A6800232B703B46BDE8F041184748
:104CD000F41E0020F81E0020FA1E0020001F0020F5
:104CE000181F00201E4B1F491A7802EB420311F8CF
:104CF0001330A3B31C4B10B553F8223018680424AA
:104D0000046093F804C001230CEB4C04BCF1090FC0
:104D100003FA0CF343EA8C6384BF1E3C43EA04535A
:104D20004FEA420E98BF43EA0453964488BF43F0CB
:104D30000073026B1B0D03F4F86322F4F862134353
:104D40000363036C836823F0004301EB4E0123F0FF
:104D50003F03012443F0040383604C7010BD70478F
:104D6000FC1E0020001F0020381F002030B4124815
:104D7000124A037803EB430112F8114002EB4101A0
:104D80006CB10F4C54F82340246825686D074FEA36
:104D9000430C06D49C4402EB4C025379037030BCA4
:104DA00070474D7815F0FD0FF4D0246C24F00F04FB
:104DB0004C8002244C70EDE7FC1E0020001F0020F8
:104DC000381F0020444BDA69520610B509D5434913
:104DD0004348CA69402422F00102CA611C62FCF700
:104DE000CDFA3D4BD869DA69D9699B684C076AD519
:104DF000D8071ED5384B0E221A624FF0402202F51A
:104E0000816353E8003F23F0010302F5816040E82D
:104E100000310029F3D14FF0402202F5806353E8BE
:104E2000003F43F0100302F5806040E800310029A4
:104E3000F3D1294BDA691B68D20643D5DB0641D58D
:104E40004FF0402202F5806353E8003F23F0100347
:104E500002F5806040E800310029F3D14FF0402294
:104E600002F5816353E8003F43F0010302F58160DE
:104E700040E800310029F3D14FF0402202F5816370
:104E800053E8003F23F0400302F5816040E8003121
:104E90000029F3D1104B5B6A4FF0402202F5816389
:104EA00053E8003F43F0400302F5816040E80031E1
:104EB0000029F3D1094B0A480222BDE810405A608C
:104EC000FCF752BC10BDD907B3D502F0020200F0C6
:104ED000080002438ED1ACE70044004000000240CD
:104EE0007404002008B5FDF71BFCFEE710B50D4C5F
:104EF0002378022B0FD00133DBB20B4A23701368E7
:104F00009B0704D5022309485360FCF7DDFBBDE88D
:104F10001040FDF7BDBB00F09DFC01F0C9FC012372
:104F2000EBE700BFFC0400200000024074040020F6
:104F3000044B5A69520500D470474FF480625A619D
:104F4000FDF7FCBB0004014000B50E4B1A6E42F0A9
:104F5000010283B01A661A6E02F001020092009AF2
:104F60009A6D42F080529A659B6D03F080530193D5
:104F70000420019B01F012FC03B05DF804EB02F089
:104F8000B9B900BF0010024010B504469CB0002122
:104F900044220BA8CDE90611CDE908110A9107F0CA
:104FA00046FC2368B3F1A04F04D0434A934246D055
:104FB0001CB010BD4FF400424FF080530BA80B9271
:104FC0001A9302F053FD00286AD13C4A136801335A
:104FD000012B136009D13A4BDA6C42F40052DA64C7
:104FE000DB6C03F400530193019B354BDA6C42F008
:104FF0000102DA64DA6C02F001020292029ADA6CBF
:1050000042F00202DA64DB6C0520032103F00203A4
:10501000CDE906010393002406A94FF09040039BBD
:10502000089401F0BFFE44F20202032325480894CD
:1050300006A9CDE9062301F0B5FE1CB010BD4FF462
:1050400000424FF080530BA80B921A9302F00EFD12
:1050500048BB1A4A13680133012B136009D1184B5E
:10506000DA6C42F40052DA64DB6C03F4005304930C
:10507000049B134BDA6C42F00102DA64DB6C9FEDA7
:105080000C7B03F00103059306A900234FF0904029
:105090008DED067B059A089301F084FE1CB010BDCF
:1050A000FCF7CEFF91E7FCF7CBFFD2E7AFF3008030
:1050B000400000000300000000010050481F0020D5
:1050C000001002400004004800B5026834498BB06B
:1050D00000238A42CDE90433CDE90633089308D092
:1050E000304B9A421ED0304B9A4234D00BB05DF810
:1050F00004FB03F1804303F504339FED237BDA6C5B
:1051000042F00102DA64DB6C03F00103019304A9AD
:105110004FF090408DED047B019B01F043FE0BB0FE
:105120005DF804FB03F5863303F5FE73DA6C42F099
:105130000102DA64DB6C9FED167B03F0010302933E
:1051400004A94FF090408DED047B029B01F02AFEF4
:105150000BB05DF804FB03F5863303F5FA73DA6CE4
:10516000124842F00202DA64DB6C9FED0B7B03F025
:105170000203039304A98DED047B039B01F012FE4F
:105180000BB05DF804FB00BF02000000030000004C
:105190008000000003000000010000000300000088
:1051A00000020140040201400C02014000040048DA
:1051B000094B02689A4200D07047D3F8482442F065
:1051C000080282B003F580639A649B6C03F00803C5
:1051D0000193019B02B07047000C02400A4B026829
:1051E0009A4200D0704703F1704303F5003382B058
:1051F000DA6C42F48022DA64DB6C03F480230193DE
:10520000019B02B0704700BF00100050000000007A
:1052100000B5026834498BB000238A42CDE90433DB
:10522000CDE90633089308D0304B9A421ED0304B5C
:105230009A4233D00BB05DF804FB03F1804303F5D1
:1052400004339FED237BDA6C42F00102DA64DB6CFD
:1052500003F00103019304A94FF090408DED047B0E
:10526000019B01F09FFD0BB05DF804FB03F5863355
:10527000FC33DA6C42F00102DA64DB6C9FED167BE2
:1052800003F00103029304A94FF090408DED047BDD
:10529000029B01F087FD0BB05DF804FB03F586333C
:1052A000F833DA6C134842F00202DA64DB6C9FEDEB
:1052B0000C7B03F00203039304A98DED047B039B95
:1052C00001F070FD0BB05DF804FB00BFAFF3008090
:1052D0000E00000003000000E000000003000000DA
:1052E0000700000003000000000301400403014028
:1052F0000803014000040048094B02689A4200D0AC
:10530000704703F5644382B01A6E42F400621A6675
:105310001B6E03F400630193019B02B0704700BF52
:10532000002C014070B5036888B00024B3F1804FB1
:10533000CDE90244CDE90444069401D008B070BD23
:1053400003F5043305469A6D1C4E42F001029A653E
:105350009A6D02F001020092009ADA6C42F00102AA
:10536000DA64DB6C03F0010301934FF40042022383
:10537000CDE902234FF09040012302A9019A069340
:1053800001F010FD0E4A34623823C6E900234FF4C1
:1053900080738022C6E9042330464FF48063C6E957
:1053A0000244C6E9063401F089FB18B96E62B562A1
:1053B00008B070BDFCF744FEF8E700BFEC08002021
:1053C0003000024070B52B4A01688AB00023914238
:1053D000CDE90433CDE90633089301D00AB070BD9E
:1053E00003F1804303F504334FF40050DA6C42F0CC
:1053F0000402DA64DA6C02F004020192019ADA6CB7
:1054000042F00202DA64DA6C02F002020292029ABC
:10541000DA6C42F00102DA64DB6C022103F0010372
:10542000CDE90401022402250393042604A91248AD
:10543000039B0896CDE9064501F0B4FC04A94FF49E
:10544000004202230D480896CDE90423CDE9064524
:1054500001F0A8FC4FF4B8520223CDE9042304A9BB
:1054600006234FF09040CDE90645089301F09AFCE1
:105470000AB070BD002C014000080048000400483C
:1054800070B5044698B00021442207A8CDE9021166
:10549000CDE90411069107F0CAF9354B22689A420A
:1054A00001D018B070BD022307A8079302F0DEFAFE
:1054B00000284CD12F4B30489A6D304E42F40032C8
:1054C0009A659A6D02F400320092009ADA6C9FEDB0
:1054D000247B42F00202DA64DB6C8DED027B9FEDEF
:1054E000227B03F00203019302A90723019A06938A
:1054F0008DED047B01F056FC21491A220023C6E9F8
:10550000001230468022C6E90233C6E90423C6E908
:105510000633336201F0D2FAF8B91A4D1A49C4F8C9
:1055200080601B220023C5E900122846102180223A
:10553000C5E90213C5E90533C5E90733B4622A6139
:1055400001F0BCFA30B9E567AC6218B070BDFCF789
:1055500077FDAFE7FCF774FDF5E7FCF771FDDCE7DD
:105560001800000002000000000000000000000021
:10557000004400400010024000040048F8070020EA
:1055800008000240980700201C000240014801F07A
:10559000BBBB00BFEC080020024B40221A60FCF7A6
:1055A000FBBF00BF00010050034B04486FF0010235
:1055B0001A6105F053B900BF002C0140A40100207E
:1055C00008B50C4B1A69120605D56FF080020A481F
:1055D0001A61FEF761F807490B69DB0505D56FF421
:1055E000807305480B61FEF777F8BDE80840FDF7CA
:1055F0004FB800BF002C0140A401002001207047DB
:1056000008B507F067F9162303604FF0FF3008BDB7
:1056100008B507F05FF916230360FEE770B5161EA4
:1056200007DD0C468D19AFF3008004F8010BA5428D
:10563000F9D1304670BD00BF70B5161E07DD0C46AF
:105640008D1914F8010BAFF30080A542F9D1304653
:1056500070BD00BF4FF0FF30704700BF4FF40053E4
:105660004B600020704700BF01207047002070474A
:105670000C490D4A0B6810B50C4C121B2BB1184489
:10568000904207D80860184610BD094B0B601844BB
:105690009042F7D907F01EF90C2303604FF0FF3357
:1056A000184610BD4C1F00200080002000040000A0
:1056B000A820002030B4026802F1080151E8003F40
:1056C00043F0010341E80034002CF7D1C168194DC3
:1056D00043686C5C234402F1240199604023136207
:1056E00002F1080151E8003F43F0400341E8003473
:1056F000002CF7D14023136252E8003F43F04003EF
:1057000042E800310029F7D102F1080151E8003FD9
:1057100043F0800341E80034002CF7D1016983682D
:10572000695C0B4402F128004021986030BC116292
:10573000704700BFF00201080369806810B40B4C89
:10574000E35CC458E40700EB030C0CD4CCF80C1059
:10575000DCF804106FF30F010A43CCF80420C258A0
:1057600042F00102C2505DF8044B7047F00201089C
:1057700010B4C3680C4C4068E35CC45800EB030CE5
:1057800024F00104C450CCF80C10DCF804105DF8CF
:10579000044B6FF30F011143CCF80410C25842F0D0
:1057A0000102C250704700BFF002010802681023D6
:1057B000136252E8003F43F0100342E80031002931
:1057C000F7D17047034AD2F8883043F47003C2F827
:1057D0008830704700ED00E038B50F4B1B680BB9FF
:1057E000012038BD0D494FF47A720546B2FBF3F340
:1057F0000868B0FBF3F001F03FF804460028EFD151
:105800000F2DEDD8024629464FF0FF3000F0D8FFAB
:10581000034B20461D6038BD040500200005002014
:10582000080500200A4A136843F4807310B503206A
:10583000136000F0B3FF0420FFF7CEFF10B1012486
:10584000204610BD0446FFF77FFB204610BD00BF79
:1058500000200240034A0449136809680B4413609E
:10586000704700BF501F002004050020014B18683E
:10587000704700BF501F002038B50446FFF7F6FF01
:10588000631C054602D0044B1B681C44FFF7EEFF67
:10589000401BA042FAD338BD0405002030B583B0C8
:1058A00000230193002800F0AA80C56D0446002D56
:1058B00000F0AA80226893689D0005D5936823F0C4
:1058C000204323F03F0393609368D80019D4684BBA
:1058D00068481B6891689B09A0FB030321F01041F5
:1058E0009B0921F03F0101335B0041F08051916041
:1058F0000193019B2BB1019B013B0193019B002B69
:10590000F9D19368D9007DD4E36D43F01003E365CA
:10591000236E012003432366936813F0040FE36DA5
:1059200069D1DB0667D4E36D23F4817343F002038E
:10593000E3659368DD0709D44FF0A0439B6813F03B
:10594000010F4D4B9B6801D1D9077AD5E568E36B10
:1059500094F824102B43A5682B43657F012943EA63
:10596000453343EA014355D0E16A21B1256B01F487
:10597000787129430B43D568404929401943D160C8
:105980001369616B23F040630B43136193681B073A
:1059900022D4D16894F83830257F21F480415B000F
:1059A00021F0020143EA85330B432169D360136977
:1059B00000293CD043F480331361D2F8C0306FF338
:1059C0000D030B43C2F8C03094F84030012B40D097
:1059D000136923F0010313616369012B1FD0136B5B
:1059E00023F00F031363E36D23F0030343F001037C
:1059F000E36503B030BDE36D43F01003E3650120C0
:105A000003B030BD002087E7FFF7BEFA256684F8B3
:105A100058504FE7A16A013943EA4143A4E7116BAB
:105A2000236A21F00F01013B0B431363DBE723F4EF
:105A300080331361D2F8C0306FF30D03C2F8C03069
:105A4000C2E70F4965688B6823F47C132B438B6096
:105A50007CE71169636CA56C6FF38A012B430B43E0
:105A6000E16C0B43216D0B4343F001031361B3E77A
:105A700000050020632D3E05000100500740F0FFA7
:105A8000000300502DE9F04190F8582082B0034601
:105A9000012A4FF00000019000F02D811A680120CA
:105AA00083F858009468640755D448684FEA901EFC
:105AB00000F01F0C0EF00C0E086802F13004C0F369
:105AC000846054F80E501F2600FA0CF006FA0CFC05
:105AD00025EA0C0C40EA0C0044F80E0090684707D9
